:020000040800F2
:1000000000C00020FD250008E9230008F1230008B6
:10001000F92300080124000809240008000000005A
:100020000000000000000000000000001124000893
:100030001D240008000000002924000835240008C1
:1000400045260008452600084526000845260008E4
:1000500045260008452600084526000845260008D4
:1000600045260008452600084526000845260008C4
:1000700045260008452600084526000845260008B4
:1000800045260008452600084526000845260008A4
:100090004526000845260008452600084526000894
:1000A0004526000845260008452600084526000884
:1000B0004526000845260008452600084526000874
:1000C0004526000845260008452600084526000864
:1000D0004526000845260008452600084526000854
:1000E000412400084526000845260008452600084A
:1000F0004526000845260008452600084526000834
:100100004526000845260008452600084526000823
:100110005124000845260008452600084526000809
:100120004526000845260008452600084526000803
:1001300000000000000000000000000000000000BF
:1001400000000000000000000000000000000000AF
:10015000000000000000000000000000000000009F
:10016000000000000000000000000000000000008F
:10017000000000000000000000000000000000007F
:10018000000000000000000000000000000000006F
:10019000000000000000000000000000000000005F
:1001A000000000000000000000000000000000004F
:1001B000000000000000000000000000000000003F
:1001C000000000000000000000000000000000002F
:1001D000000000000000000000000000000000001F
:0401E0005FF8E0F1F3
:1001E40010B5054C237833B9044B13B10448AFF36D
:1001F40000800123237010BD640200200000000071
:10020400B05E000808B5034B1BB103490348AFF3C4
:10021400008008BD0000000068020020B05E0008F5
:1002240080B487B000AF786039600023FB8200237C
:100234003B6119E03B697A6813441B78FB73FB8AC2
:100244001B0A9BB2DAB2FB7B5340BB73FB8A1B02D3
:100254001AB2BB7B094931F813301BB253401BB2AD
:10026400FB823B6901333B613A693B689A42E1DBBB
:10027400FB8A18461C37BD4680BC7047000000202E
:1002840080B483B000AF78600B46FB707B689B78CA
:100294001A460D4B9B5CFA789A420ED17B689B7888
:1002A4000133DAB27B689A707B689B78042B02D1A5
:1002B4007B6800229A70012300E0002318460C3763
:1002C400BD4680BC704700BF0002002080B483B0EC
:1002D40000AF78607B6800221A707B6801225A7034
:1002E4007B6800229A707B68002283F808217B686F
:1002F400002283F8042100BF0C37BD4680BC704740
:1003040080B582B000AF78607868FFF7DFFF00BF88
:100314000837BD4680BD80B584B000AF78607B6887
:1003240093F807311B021AB27B6893F806311BB2AB
:1003340013431BB2FB817B685A1D7B681B791946EA
:100344001046FFF76DFF03461A46FB8993420CBF24
:1003540001230023DBB218461037BD4680BD0000E0
:1003640080B582B000AF78600B46FB707B685B7829
:10037400002B02D17868FFF7C3FF7B68FA78DA7044
:100384007B681B78042B00F2918001A252F823F0C1
:10039400A9030008F5030008050400082B0400085D
:1003A40069040008FB7819467868FFF769FF03467B
:1003B4001A467B685A707B689B781A46414B9B5C53
:1003C400E12B02D17B6801221A707B689B781A4664
:1003D4003C4B9B5CAB2B6BD17B681B79002B03D014
:1003E4007B6804221A7063E07B6805221A705FE060
:1003F4007B68FA7883F805217B6802221A705CE036
:100404007B68FA781A717B68002283F804217B6880
:100414001B79002B03D07B6803221A704DE07B68A4
:1004240000221A7049E07B681B79002B07D07B6897
:1004340093F804311A467B681344FA785A717B683E
:1004440093F804310133DAB27B6883F804217B68C2
:1004540093F804217B681B799A422BD17B68002294
:100464001A7027E07B6893F808311A467B681344B6
:10047400FA7883F806217B6893F808310133DAB2FD
:100484007B6883F808217B6893F80831022B13D129
:100494007868FFF740FF0346002B03D07B680522F2
:1004A4001A7009E07868FFF72BFF05E000BF04E04D
:1004B40000BF02E000BF00E000BF00BF0837BD4638
:1004C40080BD00BF0002002080B5C6B000AF07F5B4
:1004D4008C73A3F58C731A6007F58C73A3F2111354
:1004E40002461A7007F58C73A3F589730A461A70CD
:1004F40007F58C73A3F211131B7803F07F0387F8BD
:10050400173107F58C73A3F211131B78DB0987F8F5
:10051400163197F81631002B27D197F81731002B95
:1005240002D0012B14D055E007F58C73A3F58C731E
:100534001B681A782A4B1A7007F58C73A3F58C7311
:100544001B681B781A462749274802F037F841E010
:1005540007F58C73A3F58C731B681B781A464FF44C
:100564000051224802F0D8FC34E0002387F815310A
:10057400002387F8143197F814315A1C87F8142192
:100584001A4607F58C73A3F58673AB21995497F833
:1005940014315A1C87F814211A4607F58C73A3F5F5
:1005A4008673CD21995497F814315A1C87F8142175
:1005B400194607F58C73A3F5867397F817215A54D7
:1005C40097F81731002B02D0012B02D002E000BFB4
:1005D40000E000BF00BF07F58C77BD4680BD00BFBB
:1005E40004020020C85E0008B0040020000C014092
:1005F4002DE9F043C9B000AF07F59073A3F59073EC
:100604001A6007F59073A3F2191302461A7007F5DE
:100614009073A3F58D730A461A700A2002F074F8D9
:10062400002387F81F31002387F81E3197F81E3105
:100634005A1C87F81E211A4607F59073A3F58C738C
:10064400AB21995497F81E315A1C87F81E211A467B
:1006540007F59073A3F58C73CD21995497F81E3147
:100664005A1C87F81E21194607F59073A3F58C735D
:1006740007F59072A2F2191212785A5407F5907382
:10068400A3F219131B78002B40F0B98007F590737F
:10069400A3F58D731B78083387F81F3197F81E3143
:1006A4005A1C87F81E21194607F59073A3F58C731D
:1006B40007F59072A2F58D7212785A5407F590736B
:1006C400A3F58D7319786B461E460B46013BC7F89C
:1006D4001831CBB20022984691464FF000024FF0F9
:1006E40000034FEAC90343EA58734FEAC802CBB286
:1006F40000221C4615464FF000024FF00003EB00A9
:1007040043EA5473E2000B460733DB08DB00ADEB2E
:10071400030D6B460033C7F81431002387F81D31ED
:1007240012E097F81D3107F59072A2F590721268E5
:100734001A4497F81D311178D7F81421D15497F839
:100744001D31013387F81D3107F59073A3F58D73BF
:1007540097F81D211B789A42E3D3002387F81C31B4
:1007640014E097F81C2197F81E31591C87F81E11C4
:100774001946D7F814319A5C07F59073A3F58C7376
:100784005A5497F81C31013387F81C3107F59073DC
:10079400A3F58D7397F81C211B789A42E1D397F83F
:1007A4001E315A1C87F81E211A4607F59073A3F5CB
:1007B4008C73E121995497F81E315A1C87F81E2135
:1007C4001A4607F59073A3F58C73E221995497F8B0
:1007D4001E3107F108021344C7F8103107F590736E
:1007E400A3F58D731B781946D7F81401FFF718FD8C
:1007F40003461A46D7F810311A8000BFB54697F859
:100804001F31002B09D097F81F319AB207F1080164
:100814004FF4FA63044804F065F800BF07F59277D3
:10082400BD46BDE8F08300BFD402002080B584B08B
:1008340000AF78607B681B685B68FB730D4B1B68BB
:100844000D49FA7BCA540B4B1B680133094A1360E8
:10085400084B1B68B3F5806F02DB064B00221A605D
:1008640001220649064804F0C8F800BF1037BD4607
:1008740080BD00BF780D00207809002064030020AB
:10088400D402002080B582B000AF0F4B1B78052B3B
:1008940009D001F021FE0346FB71FB7919460A4891
:1008A400FFF75EFD0BE0084B93F80531064A11791A
:1008B400064A1846FFF708FE0348FFF707FD00BF86
:1008C4000837BD4680BD00BF680300206D030020CB
:1008D40090B58DB004AF01F0B5FE9348FFF7F6FC78
:1008E4009249934800F0CEFA9249934801F020FED1
:1008F40000F046F900F00CFA00F0B6F900F0DEF969
:1009040000F084F9AE218A4800F0D9FA0346002B9E
:1009140001D100BFFDE73C23BB7704237B7702238F
:100924003B776423FB7640F29B137B614FF4805347
:100934003B61FB7E3C7F787FB97F3A6902927A699A
:100944000192009323460246794800F066FE012294
:100954007A497B4804F051F87A4B1A687A4B1B6841
:100964009A4203D1704B1B78052B02D1FFF78AFF03
:10097400D9E0764B1B78002BEED00023FB7748E0C0
:100984006B4800F017FC6A4800F048FD0346002B52
:10099400F6D0674800F0AEFA0246FB7F91B26C4A8B
:1009A40022F81310624800F0BEFA0246FB7F91B2AF
:1009B400684A22F813105E4800F04BFDFB7F644A3E
:1009C40032F813301A46FB7F63495B4801F0F6FDA9
:1009D400FB7F604A32F813301A466049564801F0EA
:1009E400EDFDFA7F3B465A4931F812201A80FA7F0E
:1009F4003B460233574931F812201A80FB7F7B7142
:100A04003B461A4605210020FFF7F2FDFB7F013328
:100A1400FB77FA7F6423013B9A42B4DB02E044484B
:100A240000F0C8FB424800F0F9FC0346002BF6D066
:100A34003F4800F05FFA02466423013B91B2444A06
:100A440022F813103A4800F06EFA02466423013B80
:100A540091B2404A22F81310354800F0FAFC6421A0
:100A64003F4B02933F4B01933F4B00933F4B384A1C
:100A7400384800F019FF6423013B354A32F813303B
:100A84001A466423013B34492B4801F097FD642343
:100A9400013B304A32F813301A463049264801F0F7
:100AA4008DFD304B1B681A463149234801F086FD01
:100AB4002B4B93F900301A462E491F4801F07EFD56
:100AC4002A4B1B681A462C491B4801F077FD264B1C
:100AD40093F900301A462949174801F06FFD642341
:100AE4005A1E3B461A4931F812201A8064235A1EB2
:100AF4003B460233174931F812201A801B4B1A68FF
:100B04003B4604331A60174B1A683B4608331A6095
:100B14006423DBB2013BDBB23B733B461A460D2137
:100B24000020FFF765FD17E768030020800200201E
:100B3400740400201C030020B0040020640300207F
:100B4400D40200207C0D0020780D00200402002037
:100B54007C050020B4040020DC5E0008F05E000880
:100B6400500600204C0600204806002044060020C1
:100B7400FC5E0008085F0008185F0008245F000896
:100B840080B590B000AF07F1180328220021184661
:100B940004F0FCFC3B1D00221A605A609A60DA6083
:100BA4001A610123BB614FF48033FB6100233B6274
:100BB4000123BB6202237B634FF48033BB634FF496
:100BC400E013FB6307F11803184603F02BFA0346FE
:100BD400002B01D000F00AF90F237B600223BB60D5
:100BE4000023FB604FF480633B6100237B613B1D6A
:100BF4000221184603F098FC0346002B01D000F0B4
:100C0400F5F800BF4037BD4680BD000080B500AF99
:100C1400124B134A1A60114B124A5A600F4B0022AE
:100C24009A600E4B0022DA600C4B4FF480421A613A
:100C34000A4B00225A61094B00229A61074B002299
:100C4400DA61064B00221A62044802F09FF9034657
:100C5400002B01D000F0CAF800BF80BD8002002044
:100C640000580040801A060080B500AF114B124AAC
:100C74001A60104B4FF4E1325A600E4B00229A6016
:100C84000C4B0022DA600B4B00221A61094B0C2238
:100C94005A61084B00229A61064B0022DA6105482A
:100CA40003F0D0FD0346002B01D000F09FF800BFF5
:100CB40080BD00BFD4020020004C004080B500AFCE
:100CC400114B124A1A60104B4FF4E1325A600E4B2A
:100CD40000229A600C4B0022DA600B4B00221A614E
:100CE400094B0C225A61084B00229A61064B0022E0
:100CF400DA61054803F0A6FD0346002B01D000F09D
:100D040075F800BF80BD00BF1C03002000380140FF
:100D140080B588B000AF07F1100300221A605A6052
:100D24009A60DA602E4B9B692D4A43F0100393615D
:100D34002B4B9B6903F01003FB60FB68284B9B69FA
:100D4400274A43F020039361254B9B6903F020035A
:100D5400BB60BB68224B9B69214A43F00803936143
:100D64001F4B9B6903F008037B607B681C4B9B69EA
:100D74001B4A43F004039361194B9B6903F004037A
:100D84003B603B6800224FF40051164802F0C4F85F
:100D94004FF480533B61144B7B610023BB6107F12B
:100DA400100319460F4801F023FF4FF400533B6131
:100DB40001237B610023BB610223FB6107F1100364
:100DC4001946084801F014FF00220021282001F0F0
:100DD40096FD282001F0AFFD00BF2037BD4680BD41
:100DE40000100240000C01400000111080B400AF5C
:100DF40072B600BF00BFFDE780B586B002AFF860F1
:100E04007A601A460B46FB721346BB7204E0FB6819
:100E14001B68184602F075FDFB681868FB7A99B2E6
:100E2400BB7A9BB2642200927A6802F0F3F903461B
:100E3400002BECD100BF00BF1037BD4680BD80B58C
:100E440086B002AFF8607A601A460B46FB7213460E
:100E5400BB7204E0FB681B68184602F052FDFB6895
:100E64001868FB7A99B2BB7A9BB2642200927A68C2
:100E740002F0CEFA0346002BECD100BF00BF1037BE
:100E8400BD4680BD80B483B000AF786039607B68B4
:100E94003A681A6000BF0C37BD4680BC704780B505
:100EA40082B000AF78607B681B79FF2219467868AE
:100EB40000F02BFB034618460837BD4680BD80B5BD
:100EC40082B000AF78600B46FB707B68FA781A71C9
:100ED4007868FFF7E4FF03461A4615239A4201D0C7
:100EE400002303E0786800F054FB01231846083718
:100EF400BD4680BD80B582B000AF7860FA217868C5
:100F040000F02AF80346002B08D07B6893F83830A9
:100F14001A467B68023253F8223000E00023184658
:100F24000837BD4680BD80B582B000AF7860FA2135
:100F3400786800F011F80346002B08D07B6893F81A
:100F440038301A467B68063253F8223000E000231A
:100F540018460837BD4680BD80B584B000AF7860C0
:100F64000B46FB7001F0C6FBF86001F0C3FB0246C0
:100F7400FB68D21AFB789A4201D900230BE0786807
:100F840000F018F90346012B01D1012303E00120ED
:100F940001F0BAFBE9E718461037BD4680BD80B5BD
:100FA40084B000AF78600921BF224023786800F044
:100FB40003FB0023FB7314E07B681B7909221946A9
:100FC400786800F0A2FA0346BB734022BB7B13404F
:100FD400DBB2002B09D0012001F096FBFB7B01332F
:100FE400FB73FB7B632BE7D900E000BF00BF103726
:100FF400BD4680BD80B582B000AF78600B46FB7003
:101004000921F822FB78786800F0D6FA00BF083787
:10101400BD4680BD80B582B000AF78600B46FB70E2
:101024000A219F22FB78786800F0C6FA00BF0837CF
:10103400BD4680BD80B582B000AF78600B46FB70C2
:101044000A21E322FB78786800F0B6FA00BF08377B
:10105400BD4680BD80B582B000AF78600B46FB70A2
:101064000A21FC22FB78786800F0A6FA00BF083752
:10107400BD4680BD80B582B000AF78600B46FB7082
:101084007B6819790C22FB78786800F066FA00BF57
:101094000837BD4680BD80B582B000AF78600B468E
:1010A400FB707B6819790D22FB78786800F055FA9B
:1010B40000BF0837BD4680BD80B582B000AF786000
:1010C4000B46FB707B6819790E22FB78786800F078
:1010D40044FA00BF0837BD4680BD80B582B000AF7A
:1010E40078600B46FB707B6819791022FB7878686E
:1010F40000F033FA00BF0837BD4680BD80B582B02A
:1011040000AF78600B46FB701346BB70FB78013B65
:10111400032B2BD801A252F823F000BF3111000891
:101124003F110008511100085F1100081121F82235
:10113400BB78786800F040FA19E011218F22BB785F
:101144001B01DBB2786800F037FA10E01221F822B4
:10115400BB78786800F030FA09E012218F22BB785E
:101164001B01DBB2786800F027FA00E000BF00BF83
:101174000837BD4680BD00BF80B582B000AF78603F
:101184000B46FB7008211F22FB78786800F014FAE4
:1011940000BF0837BD4680BD80B582B000AF78601F
:1011A4000821EF221023786800F006FA00BF083700
:1011B400BD4680BD80B590B000AF7860786800F01F
:1011C40077F9034687F83230786800F061F903460E
:1011D40087F831300023FB6397F8322097F83130D9
:1011E4009A4200F0158197F8312097F83230D31ADB
:1011F400FB63FB6B002B02DAFB6B2033FB637B6826
:101204005B791A46FB6B03FB02F213465B00134443
:10121400BB63072387F830307B68197907F1300204
:1012240001237868FFF7E8FDEEE0BB6B7B637B6B23
:10123400202B0EDD7B685B791A4613465B00134452
:10124400202292FBF3F101FB03F3D31AC3F1200331
:101254007B63BA6B7B6BD31ABB630023BB6007F160
:101264000C0300221A605A609A60DA601A615A61AB
:101274009A617B6819797B6BDBB207F108027868A5
:10128400FFF7DDFDBCE07B6893F838300133DAB258
:101294007B6883F838207B6893F8383003F00303C5
:1012A400DAB27B6883F83820002387F833300023D0
:1012B40087F82F3097F833305A1C87F8332040339F
:1012C4003B4413F8383C87F82E3097F833305A1CD7
:1012D40087F8332040333B4413F8383C87F82D30EB
:1012E40097F833305A1C87F8332040333B4413F8C3
:1012F400383C87F82C30FB6ABB62BB6AC3F311032A
:10130400BB627B6893F838301A46B96A7B6802324C
:1013140043F822107B685B79012B32D9002387F8CC
:101324002F3097F833305A1C87F8332040333B442E
:1013340013F8383C87F82E3097F833305A1C87F866
:10134400332040333B4413F8383C87F82D3097F86A
:1013540033305A1C87F8332040333B4413F8383C6D
:1013640087F82C30FB6ABB62BB6AC3F31103BB6210
:101374007B6893F838301A46B96A7B68063243F8BA
:1013840022107B685B79022B32D9002387F82F3037
:1013940097F833305A1C87F8332040333B4413F812
:1013A400383C87F82E3097F833305A1C87F83320AE
:1013B40040333B4413F8383C87F82D3097F83330EA
:1013C4005A1C87F8332040333B4413F8383C87F8E1
:1013D4002C30FB6ABB62BB6AC3F31103BB627B683C
:1013E40093F838301A46B96A7B680A3243F82210F7
:1013F4007B685B791A469B00D31A7A6B13447B6330
:101404007B6B002B3FF73FAFBB6B002B3FF70DAF60
:10141400FB6B9BB218464037BD4680BD80B485B097
:1014240000AF78607B6893F838207B6893F8393094
:10143400D31ADBB2FB7397F90F30002B03DAFB7B73
:101444000433DBB2FB73FB7B18461437BD4680BC08
:10145400704780B582B000AF78607868FFF7DEFF30
:101464000346002B10D07B6893F839300133DAB28D
:101474007B6883F839207B6893F8393003F00303E1
:10148400DAB27B6883F8392000BF0837BD4680BDD7
:1014940080B582B000AF78607B681B79042219465E
:1014A400786800F032F8034618460837BD4680BD18
:1014B40080B582B000AF78607B681B79062219463C
:1014C400786800F022F8034618460837BD4680BD08
:1014D40080B582B000AF78607B681979042200235C
:1014E400786800F03AF87B68197905220023786857
:1014F40000F033F87B68197906220023786800F03D
:101504002CF800BF0837BD4680BD80B584B000AF5D
:1015140078600B46FB701346BB70FB7843F0010305
:10152400D9B2BA1C01237868FFF766FC00BF7B6858
:101534001B68184602F0D8F90346202BF7D1002384
:10154400FB7307F10F02F97801237868FFF777FC42
:10155400FB7B18461037BD4680BD80B584B000AF14
:101564007860084611461A460346FB700B46BB706A
:1015740013467B70BB783B737B787B7307F10C025B
:10158400F97802237868FFF737FC00BF1037BD46AF
:1015940080BD80B582B000AF78607B681B79FE2285
:1015A40019467868FFF7B1FF03461A467B689A71BB
:1015B40000BF0837BD4680BD80B584B000AF7860F9
:1015C400084611461A460346FB700B46BB70134689
:1015D4007B707B681B79FA7819467868FFF795FF6A
:1015E4000346FB73FA7BBB781340FB737B68197962
:1015F400FA7B7B781343DBB2FA787868FFF7ADFFA8
:101604007B681B79FA7819467868FFF77EFF0346F2
:10161400BB7300BF1037BD4680BD80B582B000AF3C
:101624007860084611461A460346FB700B46BB70A9
:1016340013467B707868FFF7B2FCBB78012B05D1A9
:10164400002319467868FFF797FD31E0BB78022B39
:1016540005D1202319467868FFF78EFD28E0BB7872
:10166400042B05D1402319467868FFF785FD1FE058
:10167400BB78082B05D1602319467868FFF77CFDF9
:1016840016E0BB78102B05D1802319467868FFF744
:1016940073FD0DE0BB78202B05D1A0231946786893
:1016A400FFF76AFD04E0402319467868FFF764FDFC
:1016B4007868FFF771FD7B78032B05D10723194662
:1016C4007868FFF797FC0DE07B78022B05D10323A4
:1016D40019467868FFF78EFC04E0022319467868FF
:1016E400FFF788FC7B687A785A71BB69B3F5805F31
:1016F40005DA002319467868FFF78CFC22E0BB6901
:10170400B3F5005F05DA202319467868FFF782FCF9
:1017140018E0BB69B3F5804F05DA402319467868B1
:10172400FFF778FC0EE0BB69B3F5804F05D1602369
:1017340019467868FFF76EFC04E0002319467868C0
:10174400FFF768FC3B69632B05DC002319467868C6
:10175400FFF770FC49E03B69C72B05DC04231946FD
:101764007868FFF767FC40E03B69B3F5C87F05DAAA
:10177400082319467868FFF75DFC36E03B69B3F54A
:10178400487F05DA0C2319467868FFF753FC2CE0F0
:101794003B69B3F57A7F05DA102319467868FFF7B9
:1017A40049FC22E03B69B3F5C86F05DA14231946F6
:1017B4007868FFF73FFC18E03B69B3F5486F05DA3A
:1017C400182319467868FFF735FC0EE03B69B3F53A
:1017D400486F05D11C2319467868FFF72BFC04E0F9
:1017E400002319467868FFF725FC7B69752B05DC17
:1017F400002319467868FFF72DFC22E07B69D62B7D
:1018040005DC012319467868FFF724FC19E07B699D
:10181400B3F5CD7F05DC022319467868FFF71AFC7F
:101824000FE07B6940F29B12934205D103231946D2
:101834007868FFF70FFC04E0002319467868FFF787
:1018440009FCFB7819467868FFF714FCFB78194605
:101854007868FFF720FCFB7819467868FFF72CFCC2
:10186400FB7819467868FFF738FC01231A460121F2
:101874007868FFF743FC7B78012B05D902231A46CD
:1018840002217868FFF73AFC7B78022B05D9032301
:101894001A4603217868FFF731FC7868FFF718FED1
:1018A40000BF0837BD4680BD80B5B0B004AFF86056
:1018B400B9607A603B600023C7F88C300023C7F816
:1018C40088300023C7F8AC300023C7F8A83010E0F4
:1018D400D7F8A8305B00FA6813441B881A46D7F877
:1018E400AC301344C7F8AC30D7F8A8300133C7F88C
:1018F400A830D7F8A820BB689A42E9DBBB68D7F8C0
:10190400AC20B2FBF3F3C7F8AC300023C7F8A8301F
:1019140014E0D7F8A8305B00FA6813441B881A4611
:10192400D7F8AC309B1A1946B44AD7F8A83042F815
:101934002310D7F8A8300133C7F8A830D7F8A82067
:10194400BB689A42E5DB0023C7F8A83028E0AB4A1D
:10195400D7F8A83052F82320D7F8A8300133A74984
:1019640051F823301A44D7F8A8300233A34951F868
:1019740023301A44D7F8A8300333A04951F8233050
:101984001344002B00DA03339B1019469B4AD7F803
:10199400A83042F82310D7F8A8300133C7F8A8308C
:1019A400D7F8A8305F2BD2DD0023C7F89C30002382
:1019B400C7F8A8300EE0914AD7F8A83052F823307F
:1019C400D7F89C201344C7F89C30D7F8A8300133CB
:1019D400C7F8A830D7F8A830632BECDDD7F89C30D3
:1019E400874A82FB03125211DB17D31AC7F89C30C3
:1019F400D7F89C301D2B02DC1E23C7F89C30D7F887
:101A04009C303C2B02DD3C23C7F89C300023C7F8F4
:101A1400A8300CE0D7F8A8309B00B0333B44002238
:101A240043F8882CD7F8A8300133C7F8A830D7F882
:101A3400A8300E2BEEDD07F1640107F128000F2317
:101A4400029304230193D7F89C30009364236B4AD8
:101A540000F036FA0023C7F898307B6E012B38DD8E
:101A64000123C7F8A83019E0D7F8A8309B00B03399
:101A74003B4453F8882CD7F8A830013B9B00B03383
:101A84003B4453F8883CD31AD7F898201344C7F83A
:101A94009830D7F8A8300133C7F8A8307B6ED7F850
:101AA400A8209A42E0DB7B6E013BD7F8982092FB9A
:101AB400F3F3C7F8983040F2DC52D7F8983092FB31
:101AC400F3F2D7F8BC301A60D7F8C03001221A708C
:101AD40007E0D7F8BC304B4A1A60D7F8C030002270
:101AE4001A700023C7F8A8301CE0D7F8A8305B00B0
:101AF400FA6813441B881946404AD7F8A83042F8BC
:101B04002310D7F8A8305B007A6813441B88194661
:101B14003D4AD7F8A83042F82310D7F8A83001334B
:101B2400C7F8A830D7F8A820BB689A42DDDB7B6EE3
:101B3400C7F880300023C7F884300023C7F8A430E6
:101B44000023C7F8A8300CE0D7F8A8309B00B033C6
:101B54003B44002243F89C2CD7F8A8300133C7F843
:101B6400A830D7F8A830042BEEDD0023C7F8A8303E
:101B740015E0D7F8A8309B00B0333B4453F8883CB9
:101B8400642B07DD3B681F4A1A60D7F8B83000227F
:101B94001A7089E1D7F8A8300133C7F8A830D7F80C
:101BA400A820D7F880309A42E3DB0023C7F8A83096
:101BB40029E14FF07F43C7F894304FF07F43C7F8D3
:101BC4009030D7F8A83001339B00B0333B4453F82E
:101BD400882CD7F8A8309B00B0333B4453F8883C9A
:101BE400D31A032B40F30A81D7F8A8309B00B033F3
:101BF4003B4453F8883CC7F8A03034E05406002036
:101C04001F85EB5119FCFFFFE4070020A84AD7F811
:101C1400A03052F82330D7F890209A420ADAA44A26
:101C2400D7F8A03052F82330C7F89030D7F8A03056
:101C3400C7F888309F4AD7F8A03052F82330D7F835
:101C440094209A420ADA9B4AD7F8A03052F82330FB
:101C5400C7F89430D7F8A030C7F88C30D7F8A03044
:101C64000133C7F8A030D7F8A83001339B00B03354
:101C74003B4453F8883CD7F8A0209A42C6DBD7F8F7
:101C8400A83001339B00B0333B4453F8883C894A65
:101C940052F82320D7F8A8309B00B0333B4453F8C4
:101CA400883C844951F82330D21AD7F8A8309B00D5
:101CB400B0333B4453F8883CD7F88C10CB1A02FB62
:101CC40003F37B67D7F8A8309B00B0333B4453F849
:101CD400883C784A52F82320D7F8A83001339B0077
:101CE400B0333B4453F8881CD7F8A8309B00B0337A
:101CF4003B4453F8883CCB1A796F91FBF3F31344BC
:101D04007B676C4AD7F88C3052F823207B6FD31A48
:101D14007B67D7F8A83001339B00B0333B4453F8BA
:101D2400883C634A52F82320D7F8A8309B00B0338C
:101D34003B4453F8883C5E4951F82330D21AD7F813
:101D4400A8309B00B0333B4453F8883CD7F8881044
:101D5400CB1A02FB03F33B67D7F8A8309B00B033E0
:101D64003B4453F8883C524A52F82320D7F8A83011
:101D740001339B00B0333B4453F8881CD7F8A83098
:101D84009B00B0333B4453F8883CCB1A396F91FB2A
:101D9400F3F313443B67464AD7F88C3052F82320B8
:101DA4003B6FD31A3B677B6FD7F8902002FB03F39A
:101DB400DB11FB663B6FD7F8942002FB03F3DB11C6
:101DC400BB66BB6E002B19DDD7F8A430042B15DCE1
:101DD400FB6E002B12D0FB6E642203FB02F2BB6E7F
:101DE40092FBF3F2D7F8A4309B00B0333B4443F8A2
:101DF4009C2CD7F8A4300133C7F8A430D7F8A83006
:101E04000133C7F8A830D7F88030013BD7F8A820B1
:101E14009A42FFF6CEAE07F11403D7F8A410184681
:101E240000F042F9D7F8A430DA0F13445B10FB67D3
:101E3400FB6F012B13DDFB6F013B9B00B0333B4475
:101E440053F89C2CFB6F9B00B0333B4453F89C3CF1
:101E54001344DA0F13445B10C7F8843007E0FB6FB8
:101E64009B00B0333B4453F89C3CC7F88430D7F80C
:101E74008430022B11DDD7F88430B72B0DDC0E4AE9
:101E8400D7F8843013441B78BB673B68BA6F1A6079
:101E9400D7F8B83001221A7006E03B68074A1A6086
:101EA400D7F8B83000221A70B037BD4680BD00BFE5
:101EB40054060020E4070020385F000819FCFFFFE7
:101EC40080B586B002AFF860B9607A603B60BB69E8
:101ED40000933B687A68B968F86800F012F8FB6907
:101EE4007A68B968F86800F07FF8BB681A683B6ADA
:101EF4009A42A8BF1A46BB681A6000BF1037BD4695
:101F040080BD80B487B000AFF860B9607A603B6090
:101F140001237B61BB6800221A605AE07B699B0045
:101F24007A6813441B683A6A9A424FDA7B699B00C9
:101F34007A6813441A687B6903F18043013B9B0070
:101F440079680B441B689A4240DD01233B6102E03F
:101F54003B6901333B617A693B6913443A689A42AD
:101F64000DDD7B699B007A6813441A6879693B69C3
:101F74000B449B0079680B441B689A42E8D07B6948
:101F84009B007A6813441A6879693B690B449B0087
:101F940079680B441B689A4213DDBB681B680E2BDF
:101FA4000FDCBB681B68591CBA6811609B00FA6897
:101FB40013447A691A603B6901337A6913447B617B
:101FC40007E07A693B6913447B6102E07B69013372
:101FD4007B613B68013B7A699A429FDB00BF00BF8B
:101FE4001C37BD4680BC704780B588B000AFF86030
:101FF400B9607A603B60BB681B681A46F968786808
:1020040000F094F84FF0FF33FB613EE0BB681B68BF
:102014007B61FB695A1CBB681A60FB690133BB61B5
:102024002CE0BB699B00FA6813441A68FB69B3F19E
:10203400FF3F05D0FB699B00F9680B441B6801E076
:102044004FF0FF33D31A3B613A693B689A4204DC90
:102054003B685B423A699A420DDABB699B00FA68B5
:102064001A44BB681B68581CB96808609B00F9686F
:102074000B4412681A60BB690133BB61BA697B699E
:102084009A42CEDBFB690133FB61BB681B68FA69CA
:102094009A42BBDBBB681B681946F86800F004F879
:1020A40000BF2037BD4680BD80B487B000AF7860E4
:1020B400396001237B612FE07B699B007A681344BC
:1020C4001B68FB607B693B610FE03B6903F1804364
:1020D400013B9B007A681A443B699B0079680B4476
:1020E40012681A603B69013B3B613B69002B0ADDC6
:1020F4003B6903F18043013B9B007A6813441B68EE
:10210400FA689A42E1DB3B699B007A681344FA68F7
:102114001A607B6901337B617A693B689A42CBDB45
:1021240000BF00BF1C37BD4680BC704780B489B077
:1021340000AFF860B9607A600123FB6137E0FB69A6
:102144009B00BA6813441B687B61FB69BB610FE0A9
:10215400BB6903F18043013B9B00BA681A44BB6925
:102164009B00B9680B4412681A60BB69013BBB61F0
:10217400BB69002B12DD7B699B00FA6813441A6863
:10218400BB6903F18043013B9B00B9680B441B68A6
:102194009B00F9680B441B689A42D9DCBB699B001D
:1021A400BA6813447A691A60FB690133FB61FA69FE
:1021B4007B689A42C3DB00BF00BF2437BD4680BCA6
:1021C4007047000080B485B000AF154B9B69144A7A
:1021D40043F001039361124B9B6903F00103BB605D
:1021E400BB680F4BDB690E4A43F08053D3610C4B41
:1021F400DB6903F080537B607B680A4B5B68FB60A0
:10220400FB6823F0E063FB60FB6843F00073FB6052
:10221400044AFB68536000BF1437BD4680BC704756
:10222400001002400000014080B588B000AF786023
:1022340007F1100300221A605A609A60DA607B6822
:102244001B68164A934224D1154B9B69144A43F0E8
:1022540008039361124B9B6903F00803FB60FB685E
:102264004FF440633B6112237B610323FB6107F15D
:10227400100319460B4800F0BBFC094BDB69084A04
:1022840043F48003D361064BDB6903F48003BB6032
:10229400BB6800BF2037BD4680BD00BF005800406A
:1022A40000100240000C014080B58CB000AF786093
:1022B40007F11C0300221A605A609A60DA607B6896
:1022C4001B68424A93423AD1414BDB69404A43F48A
:1022D4000023D3613E4BDB6903F40023BB61BB697C
:1022E4003B4B9B693A4A43F010039361384B9B691B
:1022F40003F010037B617B694FF48063FB6102236D
:102304003B620323BB6207F11C031946314800F00A
:102314006FFC4FF40063FB6100233B6200237B628C
:1023240007F11C0319462B4800F062FC002200212F
:10233400342000F0E4FA342000F0FDFA42E07B6837
:102344001B68254A93423DD1214B9B69204A43F4A3
:10235400804393611E4B9B6903F480433B613B695B
:102364001B4B9B691A4A43F008039361184B9B6902
:1023740003F00803FB60FB684023FB6102233B621C
:102384000323BB6207F11C031946144800F030FC18
:102394008023FB6100233B6200237B6207F11C0363
:1023A40019460E4800F024FC0D4B5B68FB62FB6A87
:1023B40043F0E063FB62FB6A43F00403FB62084AF8
:1023C400FB6A536000BF3037BD4680BD004C0040FF
:1023D400001002400010014000380140000C014090
:1023E4000000014080B400AF00BFFDE780B400AF3F
:1023F40000BFFDE780B400AF00BFFDE780B400AFCD
:1024040000BFFDE780B400AF00BFFDE780B400AFBC
:1024140000BFBD4680BC704780B400AF00BFBD465E
:1024240080BC704780B400AF00BFBD4680BC70471D
:1024340080B500AF00F04CF900BF80BD80B500AF9F
:102444004FF4805000F080FD00BF80BD80B500AF28
:10245400024802F0F7FA00BF80BD00BFD40200209A
:1024640080B586B000AF7860144A154BD31A7B61EF
:102474007B693B61134B1B68002B02D1114B124A41
:102484001A60104B1A687B6813443A699A4207D25F
:1024940003F084F803460C221A604FF0FF3309E07E
:1024A400084B1B68FB60074B1A687B681344054A9A
:1024B4001360FB6818461837BD4680BD00C0002075
:1024C4000004000074090020D00F002080B400AF85
:1024D40000BFBD4680BC704780B582B000AF03E04A
:1024E4004FF47A7000F010F90E4B1A680E4B1B680B
:1024F4009A42F5D00B4B1B680C4AD35CFB71094B19
:102504001B680133074A1360064B1B68B3F5806FE1
:1025140002DB044B00221A60FB7918460837BD46DB
:1025240080BD00BF7C0D0020780D002078090020BC
:1025340080B483B000AF786039607B683A681A6011
:1025440000BF0C37BD4680BC704780B582B000AF79
:1025540078600B46FB707B681868F91C64230122C1
:1025640002F0C0F900BF0837BD4680BD80B582B017
:1025740000AF78600B46FB70FB7819467868FFF76C
:10258400E4FF00BF0837BD4680BD80B582B000AF10
:102594007860396008E03B681B7819467868FFF773
:1025A400E5FF3B6801333B603B681B78002BF2D1AD
:1025B40000BF00BF0837BD4680BD00000EB480B523
:1025C40085B000AF786007F12003BB60BB68FA698F
:1025D4004FF48071074802F0CBFFF8600549786832
:1025E400FFF7D3FFFB6818461437BD46BDE88040AB
:1025F40003B07047800D00200C480D490D4A00239C
:1026040002E0D458C4500433C4188C42F9D30A4AA3
:102614000A4C002301E013600432A242FBD3FFF70B
:1026240055FF02F0C1FFFEF753F970470000002088
:10263400640200205860000864020020CC0F0020CF
:10264400FEE7000080B500AF084B1B68074A43F063
:1026540010031360032000F047F90F2000F008F87E
:10266400FFF7B0FD0023184680BD00BF00200240E4
:1026740080B582B000AF7860124B1A68124B1B7899
:1026840019464FF47A73B3FBF1F3B2FBF3F3184634
:1026940000F05FF90346002B01D001230EE07B68B4
:1026A4000F2B0AD8002279684FF0FF3000F027F989
:1026B400064A7B681360002300E0012318460837AC
:1026C400BD4680BD08020020100200200C0200203C
:1026D40080B400AF054B1B781A46054B1B681344A6
:1026E400034A136000BFBD4680BC7047100200203F
:1026F400800E002080B400AF024B1B681846BD4614
:1027040080BC7047800E002080B584B000AF786034
:10271400FFF7F0FFB8607B68FB60FB68B3F1FF3F35
:1027240005D00A4B1B781A46FB681344FB6000BFB4
:10273400FFF7E0FF0246BB68D31AFA689A42F7D85B
:1027440000BF00BF1037BD4680BD00BF100200208F
:1027540080B485B000AF78607B6803F00703FB604A
:102764000C4BDB68BB60BA684FF6FF031340BB60D9
:10277400FB681A02BB68134343F0BF6343F400339E
:10278400BB60044ABB68D36000BF1437BD4680BC3D
:10279400704700BF00ED00E080B400AF044BDB687D
:1027A4001B0A03F007031846BD4680BC704700BFF0
:1027B40000ED00E080B483B000AF0346FB7197F9ED
:1027C4000730002B0BDBFB7903F01F02064997F956
:1027D40007305B09012000FA02F241F8232000BF10
:1027E4000C37BD4680BC704700E100E080B483B084
:1027F40000AF03463960FB7197F90730002B0ADB01
:102804003B68DAB20C4997F907301201D2B20B4493
:1028140083F800230AE03B68DAB20849FB7903F045
:102824000F03043B1201D2B20B441A7600BF0C37DB
:10283400BD4680BC704700BF00E100E000ED00E051
:1028440080B489B000AFF860B9607A60FB6803F0C7
:102854000703FB61FB69C3F10703042B28BF0423AF
:10286400BB61FB690433062B02D9FB69033B00E01F
:1028740000237B614FF0FF32BB6902FA03F3DA43B2
:10288400BB681A407B699A404FF0FF317B6901FABB
:1028940003F3D9437B680B40134318462437BD46E2
:1028A40080BC704780B582B000AF78607B68013B24
:1028B400B3F1807F01D301230FE00A4A7B68013B17
:1028C40053600F214FF0FF30FFF790FF054B0022BC
:1028D4009A60044B07221A60002318460837BD4645
:1028E40080BD00BF10E000E080B582B000AF78602A
:1028F4007868FFF72DFF00BF0837BD4680BD80B55F
:1029040086B000AF0346B9607A60FB7300237B6135
:10291400FFF742FF78617A68B9687869FFF790FF3A
:10292400024697F90F3011461846FFF75FFF00BFC4
:102934001837BD4680BD80B582B000AF0346FB7139
:1029440097F907301846FFF735FF00BF0837BD4633
:1029540080BD80B582B000AF78607868FFF7A2FFD1
:10296400034618460837BD4680BD80B485B000AF25
:1029740078600023FB737B6893F82130DBB2022B71
:1029840008D07B6804229A637B68002283F82020A5
:10299400012320E07B681B681A687B681B6822F0AF
:1029A4000E021A607B681B681A687B681B6822F039
:1029B40001021A607B681A6C7B68DB6B012101FAE7
:1029C40002F25A607B68012283F821207B6800228E
:1029D40083F82020FB7B18461437BD4680BC704723
:1029E40080B584B000AF78600023FB737B6893F8F4
:1029F4002130DBB2022B05D07B6804229A630123C9
:102A0400FB73D6E07B681B681A687B681B6822F03E
:102A14000E021A607B681B681A687B681B6822F0C8
:102A240001021A607B681B681A46644B9A4258D9A3
:102A34007B681B68624A93424FD07B681B68614A7B
:102A4400934248D07B681B685F4A934240D07B68BE
:102A54001B685E4A934238D07B681B685C4A934289
:102A640030D07B681B685B4A934228D07B681B6824
:102A7400524A934220D07B681B68574A934219D02C
:102A84007B681B68554A934212D07B681B68544A82
:102A940093420AD07B681B68524A934202D14FF496
:102AA40080531BE04FF4803318E04FF4807315E03B
:102AB400102313E0012311E04FF080730EE04FF474
:102AC40080130BE04FF4803308E04FF4805305E0AB
:102AD4004FF4807302E0102300E00123424A536064
:102AE40057E07B681B68364A93424FD07B681B686B
:102AF400344A934248D07B681B68334A934240D09F
:102B04007B681B68314A934238D07B681B68304A23
:102B1400934230D07B681B682E4A934228D07B684E
:102B24001B68264A934220D07B681B682A4A93423A
:102B340019D07B681B68294A934212D07B681B68B2
:102B4400274A93420AD07B681B68264A934202D1E3
:102B54004FF480531BE04FF4803318E04FF480733C
:102B640015E0102313E0012311E04FF080730EE011
:102B74004FF480130BE04FF4803308E04FF480539C
:102B840005E04FF4807302E0102300E00123174AAC
:102B940053607B68012283F821207B68002283F83C
:102BA40020207B685B6B002B03D07B685B6B7868B1
:102BB4009847FB7B18461037BD4680BD8000024015
:102BC400080002401C000240300002404400024061
:102BD400580002406C000240080402401C040240F9
:102BE4003004024044040240000402400000024059
:102BF40080B48BB000AF7860396000237B6200231F
:102C04003B6279E101227B6A02FA03F3FB613B68D0
:102C14001B68FA691340BB61BA69FB699A4240F0C8
:102C240068813B685B68964A93425ED0944A9342BB
:102C340075D8944A934258D0924A93426FD8924A94
:102C4400934252D0904A934269D8904A93424CD0CE
:102C54008E4A934263D88E4A934246D08C4A93421A
:102C64005DD8122B2AD8122B59D801A252F823F07E
:102C7400EF2C0008C92C0008DB2C00081D2D0008CF
:102C8400232D0008232D0008232D0008232D0008E0
:102C9400232D0008232D0008232D0008232D0008D0
:102CA400232D0008232D0008232D0008232D0008C0
:102CB400232D0008D12C0008E52C0008754A934206
:102CC40013D02CE03B68DB683B6229E03B68DB689F
:102CD40004333B6224E03B68DB6808333B621FE05B
:102CE4003B68DB680C333B621AE03B689B68002B53
:102CF40002D104233B6213E03B689B68012B05D19E
:102D040008233B627B68FA691A6109E008233B6285
:102D14007B68FA695A6103E000233B6200E000BF6C
:102D2400BB69FF2B01D87B6801E07B6804337B61BE
:102D3400BB69FF2B02D87B6A9B0002E07B6A083BDD
:102D44009B003B617B691A680F213B6901FA03F31D
:102D5400DB431A40396A3B6901FA03F31A437B697E
:102D64001A603B685B6803F08053002B00F0C1805D
:102D7400494B9B69484A43F001039361464B9B6965
:102D840003F00103BB60BB68444A7B6A9B080233BF
:102D940052F82330FB607B6A03F003039B000F228D
:102DA40002FA03F3DB43FA681340FB607B683C4A96
:102DB40093421FD07B683B4A934219D07B683A4ABE
:102DC400934213D07B68394A93420DD07B68384ACA
:102DD400934207D07B68374A934201D105230AE026
:102DE400062308E0042306E0032304E0022302E0B0
:102DF400012300E000237A6A02F003029200934068
:102E0400FA681343FB6025497B6A9B080233FA681E
:102E140041F823203B685B6803F48013002B06D041
:102E2400254B9A682449BB6913438B6006E0224B07
:102E34009A68BB69DB43204913408B603B685B683D
:102E440003F40013002B06D01B4BDA681A49BB6944
:102E54001343CB6006E0184BDA68BB69DB431649C1
:102E64001340CB603B685B6803F40033002B25D030
:102E7400114B5A681049BB6913434B6025E000BFEE
:102E84000000321000003110000022100000211058
:102E94000000121000001110001002400000014058
:102EA40000080140000C01400010014000140140E2
:102EB40000180140001C014000040140154B5A68F1
:102EC400BB69DB43134913404B603B685B6803F405
:102ED4008033002B06D00F4B1A680E49BB6913438D
:102EE4000B6006E00B4B1A68BB69DB4309491340CE
:102EF4000B607B6A01337B623B681A687B6A22FA47
:102F040003F3002B7FF47EAE00BF00BF2C37BD4619
:102F140080BC70470004014080B483B000AF786087
:102F24000B467B8013467B707B78002B03D07A881A
:102F34007B681A6103E07B881A047B681A6100BF0E
:102F44000C37BD4680BC704780B582B000AF0346E5
:102F5400FB80084B5A69FB881340002B06D0054AB6
:102F6400FB885361FB88184600F006F800BF083759
:102F7400BD4680BD0004014080B483B000AF034669
:102F8400FB8000BF0C37BD4680BC704780B584B061
:102F940000AF78607B68002B01D101232BE17B68B3
:102FA40093F83D30DBB2002B06D17B68002283F816
:102FB4003C207868FFF738F97B68242283F83D20A9
:102FC4007B681B681A687B681B6822F001021A6020
:102FD4007B681B681A687B681B6842F400421A60AD
:102FE4007B681B681A687B681B6822F400421A60BD
:102FF40001F0E2FBF8607B685B68814A934207D882
:10300400FB68804A934294BF01230023DBB206E0AD
:10301400FB687D4A934294BF01230023DBB2002B5B
:1030240001D00123E7E0FB68784AA2FB03239B0C51
:10303400BB607B681B685B6823F03F017B681B688F
:10304400BA680A435A607B681B681B6A23F03F0115
:103054007B685B686A4A934202D8BB68013309E023
:10306400BB684FF4967202FB03F3694AA2FB032385
:103074009B0901337A6812680B4313627B681B68EF
:10308400DB6923F44F4222F0FF027B685B685C49F2
:103094008B4219D8FB68591E7B685B685B00B1FBE7
:1030A400F3F3591C40F6FC730B40002B0AD0FB6869
:1030B400591E7B685B685B00B1FBF3F30133C3F318
:1030C4000B0351E004234FE07B689B68002B11D174
:1030D400FB68581E7B6859680B465B000B44B0FBC9
:1030E400F3F30133C3F30B03002B0CBF01230023C1
:1030F400DBB212E0FB68581E7B6859680B469B00E4
:103104000B4499000B44B0FBF3F30133C3F30B03FB
:10311400002B0CBF01230023DBB2002B01D00123C1
:1031240022E07B689B68002B0ED1FB68581E7B68ED
:1031340059680B465B000B44B0FBF3F30133C3F354
:103144000B0343F400430FE0FB68581E7B68596887
:103154000B469B000B4499000B44B0FBF3F3013383
:10316400C3F30B0343F44043796809681343CB6109
:103174007B681B681B6823F0C0017B68DA697B6885
:103184001B6A1A437B681B680A431A607B681B68C6
:103194009B6823F4034323F0FF037A6811697A6878
:1031A400D26811437A6812680B4393607B681B688A
:1031B400DB6823F0FF017B685A697B689B691A43CB
:1031C4007B681B680A43DA607B681B681A687B6843
:1031D4001B6842F001021A607B6800221A647B6853
:1031E400202283F83D207B6800221A637B6800223A
:1031F40083F83E20002318461037BD4680BD00BF2B
:10320400A08601007F841E00FF083D0083DE1B436F
:10321400D34D621080B588B002AFF8607A601A4668
:103224000B467B8113463B81FFF764FA7861FB68A8
:1032340093F83D30DBB2202B40F0E0807B690093B3
:10324400192301227049F86800F0B6FC0346002BEC
:1032540001D00223D3E0FB6893F83C30012B01D169
:103264000223CCE0FB68012283F83C20FB681B6846
:103274001B6803F00103012B07D0FB681B681A6865
:10328400FB681B6842F001021A60FB681B681A683D
:10329400FB681B6822F400621A60FB68212283F831
:1032A4003D20FB68102283F83E20FB6800221A644C
:1032B400FB687A685A62FB683A895A85FB685B8DB9
:1032C4009AB2FB681A85FB68504ADA6279897B698D
:1032D4003A6AF86800F020FB0346002B01D0012372
:1032E4008DE000233B61FB681B685B693B61FB6805
:1032F4001B689B693B613B6966E07A69396AF868D7
:1033040000F074FD0346002B0DD0FB681B6C042BEE
:1033140007D1FB681B681A68FB681B6842F40072DB
:103324001A6001236BE0FB685B6A1A78FB681B6810
:103334001A61FB685B6A5A1CFB685A62FB685B8D06
:103344009BB2013B9AB2FB685A85FB681B8D013B1B
:103354009AB2FB681A85FB681B685B6903F0040377
:10336400042B1BD1FB681B8D002B17D0FB685B6AF9
:103374001A78FB681B681A61FB685B6A5A1CFB6855
:103384005A62FB685B8D9BB2013B9AB2FB685A851B
:10339400FB681B8D013B9AB2FB681A857A69396A0E
:1033A400F86800F06BFD0346002B0DD0FB681B6C26
:1033B400042B07D1FB681B681A68FB681B6842F47E
:1033C40000721A6001231AE0FB681B8D002B94D154
:1033D400FB681B681A68FB681B6842F400721A6079
:1033E400FB68202283F83D20FB68002283F83E20FE
:1033F400FB68002283F83C20002300E002231846E7
:103404001837BD4680BD00BF020010000000FFFF5A
:1034140080B58CB002AFF8607A601A460B467B81A7
:1034240013463B8100233B62FFF764F97862FB6833
:1034340093F83D30DBB2202B40F04B827B6A009343
:10344400192301227F49F86800F0B6FB0346002BDC
:1034540001D002233EE2FB6893F83C30012B01D1FA
:10346400022337E2FB68012283F83C20FB681B68D7
:103474001B6803F00103012B07D0FB681B681A6863
:10348400FB681B6842F001021A60FB681B681A683B
:10349400FB681B6822F400621A60FB68222283F82E
:1034A4003D20FB68102283F83E20FB6800221A644A
:1034B400FB687A685A62FB683A895A85FB685B8DB7
:1034C4009AB2FB681A85FB685F4ADA6279897B6A7B
:1034D4003A6BF86800F0A2FA0346002B01D00123EE
:1034E400F8E1FB681B8D002B13D10023FB61FB6803
:1034F4001B685B69FB61FB681B689B69FB61FB697B
:10350400FB681B681A68FB681B6842F400721A6047
:10351400CCE1FB681B8D012B1ED1FB681B681A686C
:10352400FB681B6822F480621A6072B600BF002335
:10353400BB61FB681B685B69BB61FB681B689B69BB
:10354400BB61BB69FB681B681A68FB681B6842F4B3
:1035540000721A6062B635E0FB681B8D022B1ED127
:10356400FB681B681A68FB681B6842F400621A60F7
:1035740072B600BF00237B61FB681B685B697B61DB
:10358400FB681B689B697B617B69FB681B681A6825
:10359400FB681B6822F480621A6062B612E0FB6862
:1035A4001B681A68FB681B6842F480621A60002377
:1035B4003B61FB681B685B693B61FB681B689B693B
:1035C4003B613B6972E1FB681B8D032B00F21F8199
:1035D400FB681B8D012B23D17A6A396BF86800F0E4
:1035E40095FC0346002B01D0012373E1FB681B68A3
:1035F4001A69FB685B6AD2B21A70FB685B6A5A1C70
:10360400FB685A62FB681B8D013B9AB2FB681A8502
:10361400FB685B8D9BB2013B9AB2FB685A8545E11E
:10362400FB681B8D022B52D17B6A00933B6B0022FB
:103634000649F86800F0C0FA0346002B08D00123BD
:1036440048E100BF020010000000FFFF0400010079
:1036540072B600BFFB681B681A68FB681B6842F4FB
:1036640000721A60FB681B681A69FB685B6AD2B255
:103674001A70FB685B6A5A1CFB685A62FB681B8DF4
:10368400013B9AB2FB681A85FB685B8D9BB2013BD8
:103694009AB2FB685A8562B600BFFB681B681A6958
:1036A400FB685B6AD2B21A70FB685B6A5A1CFB68DF
:1036B4005A62FB681B8D013B9AB2FB681A85FB6852
:1036C4005B8D9BB2013B9AB2FB685A85EEE07B6A44
:1036D40000933B6B00228149F86800F06DFA0346C1
:1036E400002B01D00123F5E0FB681B681A68FB6816
:1036F4001B6822F480621A6072B600BFFB681B6804
:103704001A69FB685B6AD2B21A70FB685B6A5A1C5E
:10371400FB685A62FB681B8D013B9AB2FB681A85F1
:10372400FB685B8D9BB2013B9AB2FB685A856C4B7C
:103734001B68DB086B4AA2FB03231A0A13469B008F
:103744001344DA00D31A3B623B6A013B3B623B6A97
:10375400002B18D1FB6800221A63FB68202283F82F
:103764003D20FB68002283F83E20FB681B6C43F07D
:103774002002FB681A6462B600BFFB68002283F86B
:103784003C200123A6E0FB681B685B6903F004038B
:10379400042BD9D1FB681B681A68FB681B6842F4C8
:1037A40000721A60FB681B681A69FB685B6AD2B214
:1037B4001A70FB685B6A5A1CFB685A62FB681B8DB3
:1037C400013B9AB2FB681A85FB685B8D9BB2013B97
:1037D4009AB2FB685A8562B600BFFB681B681A6917
:1037E400FB685B6AD2B21A70FB685B6A5A1CFB689E
:1037F4005A62FB681B8D013B9AB2FB681A85FB6811
:103804005B8D9BB2013B9AB2FB685A854EE07A6AA3
:10381400396BF86800F07AFB0346002B01D00123D2
:1038240058E0FB681B681A69FB685B6AD2B21A70BD
:10383400FB685B6A5A1CFB685A62FB681B8D013B80
:103844009AB2FB681A85FB685B8D9BB2013B9AB206
:10385400FB685A85FB681B685B6903F00403042B4F
:1038640024D1FB681B8D032B07D1FB681B681A68E6
:10387400FB681B6822F480621A60FB681B681A6983
:10388400FB685B6AD2B21A70FB685B6A5A1CFB68FD
:103894005A62FB681B8D013B9AB2FB681A85FB6870
:1038A4005B8D9BB2013B9AB2FB685A85FB681B8D0A
:1038B400002B7FF488AEFB68202283F83D20FB6850
:1038C400002283F83E20FB68002283F83C2000237A
:1038D40000E0022318462837BD4680BD04000100DD
:1038E4000802002089B5F81480B483B000AF786072
:1038F4007B6893F83D30DBB218460C37BD4680BC7C
:10390400704780B483B000AF78607B681B6C184646
:103914000C37BD4680BC704780B588B002AFF860F4
:103924007A603B600B467B81FB68DB6A7B617B6969
:10393400082B06D07B69012B03D07B6913F5803FEC
:1039440008D1FB681B681A68FB681B6842F4807224
:103954001A600BE0FB681B6B122B07D1FB681B681A
:103964001A68FB681B6842F480721A603B68009313
:103974007B6800224FF00111F86800F01DF903463E
:10398400002B0DD0FB681B681B6803F48073B3F530
:10399400807F03D1FB684FF400721A64032335E07F
:1039A400FB681B69B3F5804F08D17B89DBB21A46EB
:1039B400FB681B6802F0FE021A611BE07B89DB11C5
:1039C400DBB203F00603DBB263F00F03DAB2FB6889
:1039D4001B681A613B687A680E49F86800F066F95A
:1039E4000346002B01D0012310E07B89DAB2FB6887
:1039F4001B681A613B687A680749F86800F056F951
:103A04000346002B01D0012300E000231846183799
:103A1400BD4680BD080001000200010080B588B0E9
:103A240002AFF8607A603B600B467B81FB68DB6A1F
:103A34007B61FB681B681A68FB681B6842F4806240
:103A44001A607B69082B06D07B69012B03D07B6944
:103A540013F5803F08D1FB681B681A68FB681B6874
:103A640042F480721A600BE0FB681B6B112B07D1C8
:103A7400FB681B681A68FB681B6842F480721A6052
:103A84003B6800937B6800224FF00111F86800F056
:103A940093F80346002B0DD0FB681B681B6803F4E6
:103AA4008073B3F5807F03D1FB684FF400721A640E
:103AB400032379E0FB681B69B3F5804F08D17B8948
:103AC400DBB243F00103DAB2FB681B681A615FE002
:103AD4007B89DB11DBB203F00603DBB263F00F0377
:103AE400DAB2FB681B681A613B687A683049F86887
:103AF40000F0DCF80346002B01D0012354E07B895D
:103B0400DAB2FB681B681A613B687A682949F8686D
:103B140000F0CCF80346002B01D0012344E000233D
:103B24003B61FB681B685B693B61FB681B689B69C5
:103B34003B613B69FB681B681A68FB681B6842F4BD
:103B440080721A603B6800937B6800224FF0011179
:103B5400F86800F031F80346002B0DD0FB681B68B1
:103B64001B6803F48073B3F5807F03D1FB684FF4C3
:103B740000721A64032317E07B89DB11DBB203F0C4
:103B84000603DBB263F00E03DAB2FB681B681A614A
:103B94003B687A680749F86800F088F80346002B08
:103BA40001D0012300E0002318461837BD4680BD2C
:103BB400080001000200010080B584B000AFF86085
:103BC400B9603B601346FB7148E03B68B3F1FF3FCB
:103BD40044D0FEF78FFD0246BB69D31A3A689A4275
:103BE40002D33B68002B39D1BB681B0CDBB2012B21
:103BF4000DD1FB681B685B69DA43BB6813409BB259
:103C0400002B0CBF01230023DBB21A460CE0FB6837
:103C14001B689B69DA43BB6813409BB2002B0CBF43
:103C240001230023DBB21A46FB799A4216D1FB68C2
:103C340000221A63FB68202283F83D20FB680022DF
:103C440083F83E20FB681B6C43F02002FB681A6477
:103C5400FB68002283F83C20012323E0BB681B0C93
:103C6400DBB2012B0DD1FB681B685B69DA43BB68CF
:103C740013409BB2002B0CBF01230023DBB21A4676
:103C84000CE0FB681B689B69DA43BB6813409BB27A
:103C9400002B0CBF01230023DBB21A46FB799A42A6
:103CA40093D0002318461037BD4680BD80B584B03C
:103CB40000AFF860B9607A603B6071E0FB681B6834
:103CC4005B6903F48063B3F5806F23D1FB681B68E1
:103CD4001A68FB681B6842F400721A60FB681B6870
:103CE4006FF480625A61FB6800221A63FB68202229
:103CF40083F83D20FB68002283F83E20FB681B6CA0
:103D040043F00402FB681A64FB68002283F83C2039
:103D1400012367E07B68B3F1FF3F41D0FEF7EAFC83
:103D240002463B68D31A7A689A4202D37B68002B16
:103D340036D1BB681B0CDBB2012B0CD1FB681B68B2
:103D44005B69DA43BB6813409BB2002B14BF0123A9
:103D54000023DBB20BE0FB681B689B69DA43BB689A
:103D640013409BB2002B14BF01230023DBB2002BB2
:103D740016D0FB6800221A63FB68202283F83D20DA
:103D8400FB68002283F83E20FB681B6C43F0200292
:103D9400FB681A64FB68002283F83C20012321E0BD
:103DA400BB681B0CDBB2012B0CD1FB681B685B6985
:103DB400DA43BB6813409BB2002B14BF01230023DA
:103DC400DBB20BE0FB681B689B69DA43BB681340FA
:103DD4009BB2002B14BF01230023DBB2002B7FF422
:103DE4006DAF002318461037BD4680BD80B584B042
:103DF40000AFF860B9607A6034E0F86800F0E3F886
:103E04000346002B01D0012334E0BB68B3F1FF3F2C
:103E140028D0FEF76FFC02467B68D31ABA689A4230
:103E240002D3BB68002B1DD1FB681B685B6903F0E0
:103E34008003802B16D0FB6800221A63FB682022C3
:103E440083F83D20FB68002283F83E20FB681B6C4E
:103E540043F02002FB681A64FB68002283F83C20CC
:103E6400012307E0FB681B685B6903F08003802B78
:103E7400C3D1002318461037BD4680BD80B584B039
:103E840000AFF860B9607A6034E0F86800F09BF83D
:103E94000346002B01D0012334E0BB68B3F1FF3F9C
:103EA40028D0FEF727FC02467B68D31ABA689A42E8
:103EB40002D3BB68002B1DD1FB681B685B6903F050
:103EC4000403042B16D0FB6800221A63FB6820222B
:103ED40083F83D20FB68002283F83E20FB681B6CBE
:103EE40043F02002FB681A64FB68002283F83C203C
:103EF400012307E0FB681B685B6903F00403042BE0
:103F0400C3D1002318461037BD4680BD80B584B0A8
:103F140000AFF860B9607A6049E0FB681B685B69D0
:103F240003F01003102B19D1FB681B686FF010020B
:103F34005A61FB6800221A63FB68202283F83D2043
:103F4400FB68002283F83E20FB681A6CFB681A6445
:103F5400FB68002283F83C20012330E0FEF7CAFB13
:103F640002467B68D31ABA689A4202D3BB68002B14
:103F74001DD1FB681B685B6903F04003402B16D01E
:103F8400FB6800221A63FB68202283F83D20FB684B
:103F9400002283F83E20FB681B6C43F02002FB6880
:103FA4001A64FB68002283F83C20012307E0FB68C5
:103FB4001B685B6903F04003402BAED10023184615
:103FC4001037BD4680BD80B483B000AF78607B6895
:103FD4001B685B6903F48063B3F5806F1BD17B6856
:103FE4001B686FF480625A617B6800221A637B68E5
:103FF400202283F83D207B68002283F83E207B68E2
:104004001B6C43F004027B681A647B68002283F80B
:104014003C20012300E0002318460C37BD4680BC39
:104024007047000080B586B000AF78607B68002BD5
:1040340001D1012372E27B681B6803F00103002BAA
:1040440000F08780924B5B6803F00C03042B0CD0C8
:104054008F4B5B6803F00C03082B12D18C4B5B680D
:1040640003F48033B3F5803F0BD1894B1B6803F411
:104074000033002B6CD07B685B68002B68D1012374
:104084004CE27B685B68B3F5803F06D1804B1B68CC
:104094007F4A43F4803313602EE07B685B68002B17
:1040A4000CD17B4B1B687A4A23F480331360784B22
:1040B4001B68774A23F4802313601DE07B685B68E8
:1040C400B3F5A02F0CD1724B1B68714A43F48023C3
:1040D40013606F4B1B686E4A43F4803313600BE02C
:1040E4006B4B1B686A4A23F480331360684B1B686C
:1040F400674A23F4802313607B685B68002B13D02A
:10410400FEF7F8FA386108E0FEF7F4FA02463B6974
:10411400D31A642B01D9032300E25D4B1B6803F41B
:104124000033002BF0D014E0FEF7E4FA386108E025
:10413400FEF7E0FA02463B69D31A642B01D9032344
:10414400ECE1534B1B6803F40033002BF0D100E087
:1041540000BF7B681B6803F00203002B63D04C4B49
:104164005B6803F00C03002B0BD0494B5B6803F036
:104174000C03082B1CD1464B5B6803F48033002BE3
:1041840016D1434B1B6803F00203002B05D07B6858
:104194001B69012B01D00123C0E13D4B1B6823F0B7
:1041A400F8027B685B69DB00394913430B603AE032
:1041B4007B681B69002B20D0364B01221A60FEF766
:1041C40099FA386108E0FEF795FA02463B69D31A7A
:1041D400022B01D90323A1E12D4B1B6803F0020339
:1041E400002BF0D02A4B1B6823F0F8027B685B6934
:1041F400DB00274913430B6015E0264B00221A60AD
:10420400FEF778FA386108E0FEF774FA02463B6973
:10421400D31A022B01D9032380E11D4B1B6803F041
:104224000203002BF0D17B681B6803F00803002B0A
:104234003AD07B689B69002B19D0174B01221A6076
:10424400FEF758FA386108E0FEF754FA02463B6973
:10425400D31A022B01D9032360E10D4B5B6A03F0EF
:104264000203002BF0D0012000F0CEFA1CE00A4B30
:1042740000221A60FEF73EFA38610FE0FEF73AFAC0
:1042840002463B69D31A022B08D9032346E100BF37
:10429400001002400000424280044242924B5B6A9A
:1042A40003F00203002BE9D17B681B6803F00403CD
:1042B400002B00F0A6800023FB758B4BDB6903F019
:1042C4008053002B0DD1884BDB69874A43F0805320
:1042D400D361854BDB6903F08053BB60BB6801236A
:1042E400FB75824B1B6803F48073002B18D17F4B42
:1042F4001B687E4A43F480731360FEF7FBF9386150
:1043040008E0FEF7F7F902463B69D31A642B01D99A
:10431400032303E1754B1B6803F48073002BF0D077
:104324007B68DB68012B06D16F4B1B6A6E4A43F036
:10433400010313622DE07B68DB68002B0CD16A4B10
:104344001B6A694A23F001031362674B1B6A664ABE
:1043540023F0040313621CE07B68DB68052B0CD19B
:10436400614B1B6A604A43F0040313625E4B1B6A91
:104374005D4A43F0010313620BE05B4B1B6A5A4A2C
:1043840023F001031362584B1B6A574A23F00403BA
:1043940013627B68DB68002B15D0FEF7ABF938613C
:1043A4000AE0FEF7A7F902463B69D31A41F28832C4
:1043B400934201D90323B1E04B4B1B6A03F0020380
:1043C400002BEED014E0FEF795F938610AE0FEF711
:1043D40091F902463B69D31A41F28832934201D9DA
:1043E40003239BE0404B1B6A03F00203002BEED136
:1043F400FB7D012B05D13C4BDB693B4A23F0805309
:10440400D3617B68DB69002B00F08780364B5B68E7
:1044140003F00C03082B61D07B68DB69022B46D1C7
:10442400334B00221A60FEF765F9386108E0FEF7A5
:1044340061F902463B69D31A022B01D903236DE0CB
:10444400294B1B6803F00073002BF0D17B681B6AB7
:10445400B3F5803F08D1244B5B6823F400327B68BA
:104464009B68214913434B601F4B5B6823F4741210
:104474007B68196A7B685B6A0B431B4913434B6077
:104484001B4B01221A60FEF735F9386108E0FEF78C
:1044940031F902463B69D31A022B01D903233DE0CB
:1044A400114B1B6803F00073002BF0D035E0104B68
:1044B40000221A60FEF71EF9386108E0FEF71AF9C7
:1044C40002463B69D31A022B01D9032326E0064B8B
:1044D4001B6803F00073002BF0D11EE07B68DB69DE
:1044E400012B07D1012319E00010024000700040A5
:1044F400600042420B4B5B68FB60FB6803F4803254
:104504007B681B6A9A4206D1FB6803F470127B68CD
:104514005B6A9A4201D0012300E000231846183751
:10452400BD4680BD0010024080B584B000AF786005
:1045340039607B68002B01D10123D0E06A4B1B68F2
:1045440003F007033A689A4210D9674B1B6823F0BB
:10455400070265493B6813430B60634B1B6803F018
:1045640007033A689A4201D00123B8E07B681B68CC
:1045740003F00203002B20D07B681B6803F00403C4
:10458400002B05D0594B5B68584A43F4E0635360F1
:104594007B681B6803F00803002B05D0534B5B6852
:1045A400524A43F460535360504B5B6823F0F0026B
:1045B4007B689B684D4913434B607B681B6803F021
:1045C4000103002B40D07B685B68012B07D1474B6C
:1045D4001B6803F40033002B15D101237FE07B68B3
:1045E4005B68022B07D1414B1B6803F00073002B5F
:1045F40009D1012373E03D4B1B6803F00203002B38
:1046040001D101236BE0394B5B6823F003027B6823
:104614005B68364913434B60FEF76CF8F8600AE0B8
:10462400FEF768F80246FB68D31A41F288329342D7
:1046340001D9032353E02D4B5B6803F00C027B6824
:104644005B689B009A42EBD1274B1B6803F007037E
:104654003A689A4210D2244B1B6823F0070222497D
:104664003B6813430B60204B1B6803F007033A6855
:104674009A4201D0012332E07B681B6803F00403F3
:10468400002B08D0194B5B6823F4E0627B68DB687D
:10469400164913434B607B681B6803F00803002B27
:1046A40009D0124B5B6823F460527B681B69DB0002
:1046B4000E4913434B6000F021F802460B4B5B6834
:1046C4001B0903F00F030A49CB5C22FA03F3094ADE
:1046D4001360094B1B681846FDF7CAFF00231846F0
:1046E4001037BD4680BD00BF0020024000100240CC
:1046F400F05F0008080200200C02002080B487B09C
:1047040000AF0023FB600023BB6000237B61002318
:104714007B6000233B611E4B5B68FB60FB6803F01E
:104724000C03042B02D0082B03D027E0194B3B6168
:1047340027E0FB689B0C03F00F03174AD35C7B60F4
:10474400FB6803F48033002B10D0114B5B685B0CC7
:1047540003F00103114AD35CBB607B680D4A03FB81
:1047640002F2BB68B2FBF3F37B6104E07B680C4AA2
:1047740002FB03F37B617B693B6102E0054B3B6118
:1047840000BF3B6918461C37BD4680BC704700BF5C
:104794000010024000127A00086000081860000847
:1047A40000093D0080B400AF024B1B681846BD46AB
:1047B40080BC70470802002080B500AFFFF7F2FF0D
:1047C4000246054B5B681B0A03F007030349CB5CF5
:1047D40022FA03F3184680BD00100240006000086E
:1047E40080B500AFFFF7DEFF0246054B5B68DB0ACE
:1047F40003F007030349CB5C22FA03F3184680BD98
:10480400001002400060000880B485B000AF7860FA
:104814000A4B1B680A4AA2FB03235B0A7A6802FB61
:1048240003F3FB6000BFFB685A1EFA60002BF9D14A
:1048340000BF00BF1437BD4680BC7047080200208B
:10484400D34D621080B582B000AF78607B68002BD6
:1048540001D1012342E07B6893F84130DBB2002BA5
:1048640006D17B68002283F840207868FDF71CFDA0
:104874007B68242283F841207B681B68DA687B68A4
:104884001B6822F40052DA60786800F0B7FD7B6898
:104894001B681A697B681B6822F490421A617B6862
:1048A4001B685A697B681B6822F02A025A617B687C
:1048B4001B68DA687B681B6842F40052DA607B6824
:1048C40000225A647B68202283F841207B682022DE
:1048D40083F842207B6800225A6300231846083775
:1048E400BD4680BD80B58AB002AFF860B9603B6058
:1048F4001346FB8000237B61FB6893F84130DBB2F5
:10490400202B75D1BB68002B02D0FB88002B01D172
:1049140001236EE0FB6800225A64FB68212283F8BD
:104924004120FDF7E7FE7861FB68FA889A84FB680A
:10493400FA88DA84FB689B68B3F5805F08D1FB686A
:104944001B69002B04D10023FB61BB68BB6103E03E
:10495400BB68FB610023BB612EE03B6800937B696D
:1049640000228021F86800F01CFB0346002B05D0D0
:10497400FB68202283F8412003233AE0FB69002BE3
:104984000BD1BB691B881A46FB681B68C2F308027B
:104994005A60BB690233BB6107E0FB691A78FB68A4
:1049A4001B685A60FB690133FB61FB68DB8C9BB2BB
:1049B400013B9AB2FB68DA84FB68DB8C9BB2002B68
:1049C400CBD13B6800937B6900224021F86800F05A
:1049D400E8FA0346002B05D0FB68202283F8412027
:1049E400032306E0FB68202283F84120002300E033
:1049F400022318462037BD4680BD80B584B000AF81
:104A0400F860B9601346FB80FB6893F84230DBB270
:104A1400202B12D1BB68002B02D0FB88002B01D1C4
:104A240001230BE0FB6800221A63FB881A46B9686D
:104A3400F86800F00FFB034600E002231846103725
:104A4400BD4680BD80B5BAB000AF78607B681B6896
:104A54001B68C7F8E4307B681B68DB68C7F8E03084
:104A64007B681B685B69C7F8DC300023C7F8D83063
:104A74000023C7F8D430D7F8E43003F00F03C7F8A5
:104A8400D830D7F8D830002B0FD1D7F8E43003F062
:104A94002003002B09D0D7F8E03003F02003002BCB
:104AA40003D0786800F0ECFB5BE2D7F8D830002B39
:104AB40000F0DE80D7F8DC3003F00103002B06D1D0
:104AC400D7F8E03003F49073002B00F0D180D7F8CE
:104AD400E43003F00103002B0BD0D7F8E03003F4EB
:104AE4008073002B05D07B685B6C43F001027B680C
:104AF4005A64D7F8E43003F00403002B0BD0D7F842
:104B0400DC3003F00103002B05D07B685B6C43F0C1
:104B140002027B685A64D7F8E43003F00203002BE6
:104B24000BD0D7F8DC3003F00103002B05D07B68F1
:104B34005B6C43F004027B685A64D7F8E43003F0FA
:104B44000803002B11D0D7F8E03003F02003002B2A
:104B540005D1D7F8DC3003F00103002B05D07B68C6
:104B64005B6C43F008027B685A647B685B6C002BC7
:104B740000F0F281D7F8E43003F02003002B08D0D2
:104B8400D7F8E03003F02003002B02D0786800F05F
:104B940077FB7B681B685B6903F04003002B14BF41
:104BA40001230023DBB2C7F8D4307B685B6C03F0CD
:104BB4000803002B03D1D7F8D430002B4FD07868EA
:104BC40000F081FA7B681B685B6903F04003002BEB
:104BD40041D07B681B681433C7F89C30D7F89C30ED
:104BE40053E8003FC7F89830D7F8983023F04003D3
:104BF400C7F8D0307B681B681433D7F8D020C7F8C7
:104C0400A820C7F8A430D7F8A410D7F8A82041E802
:104C14000023C7F8A030D7F8A030002BD9D17B6887
:104C2400DB6B002B13D07B68DB6B7E4A5A637B689B
:104C3400DB6B1846FDF7D4FE0346002B16D07B68C9
:104C4400DB6B5B6B7A68D26B104698470EE0786832
:104C540000F093F90AE0786800F08FF906E07868CC
:104C640000F08BF97B6800225A6475E100BF73E1A0
:104C74007B681B6B012B40F04F81D7F8E43003F0C5
:104C84001003002B00F04881D7F8E03003F0100344
:104C9400002B00F041810023BB607B681B681B680C
:104CA400BB607B681B685B68BB60BB687B681B6818
:104CB4005B6903F04003002B00F0B6807B68DB6B7C
:104CC4001B685B68A7F8BE30B7F8BE30002B00F055
:104CD40045817B689B8DB7F8BE209A4280F03E8167
:104CE4007B68B7F8BE20DA857B68DB6B9B69202B79
:104CF40000F088807B681B680C33C7F88830D7F8CD
:104D0400883053E8003FC7F88430D7F8843023F460
:104D14008073C7F8B8307B681B680C33D7F8B820A9
:104D2400C7F89420C7F89030D7F89010D7F894209B
:104D340041E80023C7F88C30D7F88C30002BD9D148
:104D44007B681B6814337B677B6F53E8003F3B67CA
:104D54003B6F23F00103C7F8B4307B681B6814333E
:104D6400D7F8B420C7F88020FB67F96FD7F8802004
:104D740041E80023BB67BB6F002BE1D17B681B6854
:104D840014333B663B6E53E8003FFB65FB6D23F039
:104D94004003C7F8B0307B681B681433D7F8B020E1
:104DA400FA66BB66B96EFA6E41E800237B667B6ED9
:104DB400002BE3D17B68202283F842207B68002209
:104DC4001A637B681B680C33FB64FB6C53E8003F7D
:104DD400BB64BB6C23F01003C7F8AC307B681B6862
:104DE4000C33D7F8AC20BA657B65796DBA6D41E8B0
:104DF40000233B653B6D002BE3D17B68DB6B1846DE
:104E0400FDF7B3FD7B6802225A637B689A8D7B6849
:104E1400DB8D9BB2D31A9BB21946786800F0B6F8C2
:104E24009CE000BF8F5100087B689A8D7B68DB8D06
:104E34009BB2D31AA7F8CE307B68DB8D9BB2002BD4
:104E440000F08E80B7F8CE30002B00F089807B68AC
:104E54001B680C33BB63BB6B53E8003F7B637B6B0A
:104E640023F49073C7F8C8307B681B680C33D7F8F9
:104E7400C8207A643B64396C7A6C41E80023FB6394
:104E8400FB6B002BE3D17B681B6814337B627B6A6A
:104E940053E8003F3B623B6A23F00103C7F8C43088
:104EA4007B681B681433D7F8C4203A63FB62F96A41
:104EB4003A6B41E80023BB62BB6A002BE3D17B68F9
:104EC400202283F842207B6800221A637B681B68D7
:104ED4000C333B613B6953E8003FFB60FB6823F004
:104EE4001003C7F8C0307B681B680C33D7F8C020A8
:104EF400FA61BB61B969FA6941E800237B617B69A6
:104F0400002BE3D17B6802225A63B7F8CE301946EE
:104F1400786800F03BF823E0D7F8E43003F080032E
:104F2400002B09D0D7F8E03003F08003002B03D026
:104F3400786800F03EF914E0D7F8E43003F0400359
:104F4400002B0ED0D7F8E03003F04003002B08D03C
:104F5400786800F07DF904E000BF02E000BF00E0E3
:104F640000BFE837BD4680BD80B483B000AF786031
:104F740000BF0C37BD4680BC704780B483B000AF1F
:104F8400786000BF0C37BD4680BC704780B483B0E6
:104F940000AF78600B467B8000BF0C37BD4680BCF9
:104FA400704780B586B000AFF860B9603B601346C7
:104FB400FB713BE03B6AB3F1FF3F37D0FDF79AFB4F
:104FC40002463B68D31A3A6A9A4202D33B6A002BE0
:104FD40001D103233AE0FB681B68DB6803F0040398
:104FE400002B23D0BB68802B20D0BB68402B1DD066
:104FF400FB681B681B6803F00803082B16D1002309
:105004007B61FB681B681B687B61FB681B685B68D2
:105014007B617B69F86800F056F8FB6808225A64E3
:10502400FB68002283F8402001230FE0FB681B6823
:105034001A68BB681340BA689A420CBF0123002364
:10504400DBB21A46FB799A42B4D0002318461837CB
:10505400BD4680BD80B485B000AFF860B96013462A
:10506400FB80FB68BA689A62FB68FA889A85FB68D9
:10507400FA88DA85FB6800225A64FB68222283F8E6
:105084004220FB681B69002B07D0FB681B68DA68A9
:10509400FB681B6842F48072DA60FB681B685A691B
:1050A400FB681B6842F001025A61FB681B68DA68FE
:1050B400FB681B6842F02002DA60002318461437AC
:1050C400BD4680BC704780B495B000AF78607B6803
:1050D4001B680C337B637B6B53E8003F3B633B6B88
:1050E40023F49073FB647B681B680C33FA6C3A649A
:1050F400FB63F96B3A6C41E80023BB63BB6B002B89
:10510400E5D17B681B6814333B623B6A53E8003F7C
:10511400FB61FB6923F00103BB647B681B681433E8
:10512400BA6CFA62BB62B96AFA6A41E800237B622C
:105134007B6A002BE5D17B681B6B012B19D17B6843
:105144001B680C33FB60FB6853E8003FBB60BB6823
:1051540023F010037B647B681B680C337A6CBA61A0
:105164007B617969BA6941E800233B613B69002BA3
:10517400E5D17B68202283F842207B6800221A63F1
:1051840000BF5437BD4680BC704780B584B000AFC3
:1051940078607B685B6AFB60FB680022DA85FB68E9
:1051A4000022DA84F868FFF7E8FE00BF1037BD4636
:1051B40080BD80B485B000AF78607B6893F84130DF
:1051C400DBB2212B3ED17B689B68B3F5805F14D1A1
:1051D4007B681B69002B10D17B681B6AFB60FB6832
:1051E4001B881A467B681B68C2F308025A607B68F6
:1051F4001B6A9A1C7B681A6208E07B681B6A591C4C
:105204007A6811621A787B681B685A607B68DB8C49
:105214009BB2013B9BB27A681946D184002B0FD113
:105224007B681B68DA687B681B6822F08002DA609E
:105234007B681B68DA687B681B6842F04002DA60AE
:10524400002300E0022318461437BD4680BC704793
:1052540080B582B000AF78607B681B68DA687B68D1
:105264001B6822F04002DA607B68202283F8412028
:105274007868FFF779FE002318460837BD4680BDDD
:1052840080B58CB000AF78607B6893F84230DBB2B5
:10529400222B40F0AE807B689B68B3F5805F17D10A
:1052A4007B681B69002B13D10023FB627B689B6A1C
:1052B400BB627B681B685B689BB2C3F308039AB24A
:1052C400BB6A1A807B689B6A9A1C7B689A6226E098
:1052D4007B689B6AFB620023BB627B689B68B3F5B7
:1052E400805F07D07B689B68002B0AD17B681B69B1
:1052F400002B06D17B681B685B68DAB2FB6A1A7004
:1053040008E07B681B685B68DBB203F07F03DAB2FA
:10531400FB6A1A707B689B6A5A1C7B689A627B687A
:10532400DB8D9BB2013B9BB27A681946D185002B79
:105334005DD17B681B68DA687B681B6822F02002F9
:10534400DA607B681B68DA687B681B6822F4807209
:10535400DA607B681B685A697B681B6822F001026B
:105364005A617B68202283F842207B6800225A63BA
:105374007B681B6B012B35D17B6800221A637B6829
:105384001B680C337B617B6953E8003F3B613B69DD
:1053940023F010037B627B681B680C337A6A3A62E1
:1053A400FB61F9693A6A41E80023BB61BB69002BE0
:1053B400E5D17B681B681B6803F01003102B0AD12E
:1053C4000023FB607B681B681B68FB607B681B68B1
:1053D4005B68FB60FB687B689B8D19467868FFF708
:1053E400D5FD02E07868FBF721FA002302E00023F0
:1053F40000E0022318463037BD4680BD80B584B036
:1054040000AF78607B681B681B6923F440517B689C
:10541400DA687B681B680A431A617B689A687B6850
:105424001B691A437B685B691343BB607B681B6819
:10543400DB6823F4B05323F00C037A681268B9686C
:105444000B43D3607B681B685B6923F440717B6802
:105454009A697B681B680A435A617B681B682C4AFB
:10546400934203D1FFF7BCF9F86002E0FFF7A4F917
:10547400F860FA6813469B0013449A001A447B6848
:105484005B689B00B2FBF3F3224AA2FB03235B0994
:105494001901FA6813469B0013449A001A447B6866
:1054A4005B689B00B2FBF3F21A4BA3FB02035B099C
:1054B400642000FB03F3D31A1B013233154AA2FB09
:1054C40003235B0903F0F0031944FA6813469B00B5
:1054D40013449A001A447B685B689B00B2FBF3F2A6
:1054E4000C4BA3FB02035B09642000FB03F3D31AF8
:1054F4001B013233074AA2FB03235B0903F00F02AB
:105504007B681B680A449A6000BF1037BD4680BDA3
:10551400003801401F85EB5130B51446002C054678
:105524001A469BB005DA8B2303604FF0FF301BB0A3
:1055340030BD4FF40273ADF80C300CBF234604F1B8
:10554400FF33029305934FF6FF7300910491ADF876
:105554000E3069461E9B00F09FF9431CBCBF8B2391
:105564002B60002CE3D00022009B1A70DFE70000C0
:1055740007B5009313460A46014603480068FFF73F
:10558400CBFF03B05DF804FB140200200346024481
:10559400934200D1704703F8011BF9E7014B1868E7
:1055A400704700BF1402002070B500260C4D0D4C4E
:1055B400641BA410A64209D100F078FC00260A4D11
:1055C4000A4C641BA410A64205D170BD55F8043BD7
:1055D40098470136EEE755F8043B98470136F2E761
:1055E40050600008506000085060000854600008D3
:1055F4007047704738B50546002940D051F8043C3F
:105604000C1F002BB8BFE41800F0DEF81C4A136826
:1056140033B9636014602846BDE8384000F0DAB856
:10562400A34208D9206821188B4201BF19685B681E
:1056340009182160EDE71A465B680BB1A342FAD959
:1056440011685018A0420BD12068014450188342BD
:105654001160E0D118685B68084410605360DAE7B1
:1056640002D90C232B60D6E7206821188B4201BF96
:1056740019685B680918216063605460CBE738BD22
:10568400C80F002070B50F4E0C463168054611B99D
:1056940000F0AAFB30602146284600F0A5FB431C1D
:1056A40003D14FF0FF34204670BDC41C24F0030422
:1056B400A042F8D0211A284600F096FB0130F2D11E
:1056C400EFE700BFC40F00202DE9F843CD1C25F0FF
:1056D400030508350C2D38BF0C25002D064601DBCB
:1056E400A94204D90C2333600020BDE8F883DFF815
:1056F400D48000F069F8D8F800301C4644BB294631
:105704003046FFF7BFFF431C044658D1D8F8004089
:105714002746002F43D1002C4BD02368394630460E
:1057240004EB030900F060FB814542D12168304657
:105734006D1A2946FFF7A6FF01303AD023682B449F
:105744002360D8F800305A6862BBC8F800700FE0D4
:105754002268521B20D40B2A17D96119A342256051
:1057640018BF5960636808BFC8F8001062514B60E5
:10577400304600F02FF804F10B00231D20F0070041
:10578400C21A1CBF1B1AA350AFE76268A3420CBF26
:10579400C8F800205A60EBE723466468AEE73C464D
:1057A4007F68B6E71A465B68A342FBD100235360C7
:1057B400DEE70C233046336000F00CF894E7056014
:1057C400D6E700BFC80F00200148FFF711BF00BF94
:1057D400C00F00200148FFF70CBF00BFC00F00201E
:1057E4002DE9F0471F468E688246BE420C4690461D
:1057F4000B682DD8B1F90C2012F4906F26D065698E
:10580400096905EB4505A3EB010905EBD5757B1C7F
:105814004B446D109D4238BF1D46530527D529467C
:10582400FFF752FF064660B34A46216900F0FAFAD0
:10583400A38923F4906343F08003A38126614E443B
:1058440026603E466561A5EB0905A560BE4200D908
:105854003E4632464146206800F0ACFA0020A36878
:105864009B1BA360236833442360BDE8F0872A466A
:1058740000F0E6FA06460028E0D150462169FFF719
:10588400B9FE0C23CAF80030A3894FF0FF3043F06F
:105894004003A381E9E700002DE9F04F98468B8986
:1058A40007461B060D4614469DB010D50B6973B907
:1058B4004021FFF709FF2860286130B90C233B60C1
:1058C4004FF0FF301DB0BDE8F08F40236B61002323
:1058D400099320238DF8293030234FF00109CDF8A6
:1058E4000C80DFF898818DF82A3023469A4613F805
:1058F400012B0AB1252AF9D1BAEB040B0BD05B4674
:10590400224629463846FFF76BFF013000F0A78096
:10591400099A5A4409929AF80030002B00F09F80AB
:1059240000234FF0FF32CDE905230AF1010A049365
:1059340007938DF853301A935446052214F8011B2B
:105944004E4800F061FA049AD8B9D00644BF202327
:105954008DF85330110744BF2B238DF853309AF838
:1059640000302A2B15D0544600204FF00A0C079A19
:10597400214611F8013B303B092B4BD9B0B10792BA
:1059840014E0A0EB080309FA03F31343A2460493BB
:10599400D2E7039B191D1B680391002BBBBF5B421D
:1059A40042F0020207930793B8BF049223782E2B88
:1059B4000AD163782A2B32D1039B02341A1D1B6847
:1059C400039243EAE3730593DFF8B4A0032250463D
:1059D400217800F019FA38B14022049BA0EB0A00A8
:1059E400824013430134049314F8011B0622254812
:1059F4008DF8281000F008FA002836D0224B1BBB83
:105A0400039B073323F0070308330393099B3344B1
:105A140009936AE70C4601200CFB0232A8E7002335
:105A24004FF00A0C194601340593204610F8012B57
:105A3400303A092A03D9002BC6D00591C4E704469D
:105A440001230CFB0121F0E703AB00932A463846FF
:105A54000E4B04A9AFF30080421C0646D6D1AB8995
:105A64005B063FF52DAF09982CE703AB00932A465C
:105A74003846064B04A900F07DF8EDE71A600008EB
:105A8400206000082460000800000000E5570008BA
:105A94002DE9F047164698468A680B6907469342F3
:105AA400B8BF1346336091F843200C46DDF82090CC
:105AB4000AB1013333602368990642BF3368023365
:105AC4003360256815F0060506D104F1190AE36868
