:020000040800F2
:1000000000C00020792500086D2300087323000834
:10001000792300087F2300088523000800000000E2
:100020000000000000000000000000008B2300081A
:100030009723000800000000A3230008AF23000856
:10004000C1250008C1250008C1250008C1250008F8
:10005000C1250008C1250008C1250008C1250008E8
:10006000C1250008C1250008C1250008C1250008D8
:10007000C1250008C1250008C1250008C1250008C8
:10008000C1250008C1250008C1250008C1250008B8
:10009000C1250008C1250008C1250008C1250008A8
:1000A000C1250008C1250008C1250008C125000898
:1000B000C1250008C1250008C1250008C125000888
:1000C000C1250008C1250008C1250008C125000878
:1000D000C1250008C1250008C1250008C125000868
:1000E000BB230008C1250008C1250008C125000860
:1000F000C1250008C1250008C1250008C125000848
:10010000C1250008C1250008C1250008C125000837
:10011000CD230008C1250008C1250008C12500081D
:10012000C1250008C1250008C1250008C125000817
:1001300000000000000000000000000000000000BF
:1001400000000000000000000000000000000000AF
:10015000000000000000000000000000000000009F
:10016000000000000000000000000000000000008F
:10017000000000000000000000000000000000007F
:10018000000000000000000000000000000000006F
:10019000000000000000000000000000000000005F
:1001A000000000000000000000000000000000004F
:1001B000000000000000000000000000000000003F
:1001C000000000000000000000000000000000002F
:1001D000000000000000000000000000000000001F
:0401E0005FF8E0F1F3
:1001E40010B5054C237833B9044B13B10448AFF36D
:1001F40000800123237010BD740200200000000061
:10020400085B000808B5034B1BB103490348AFF36F
:10021400008008BD0000000078020020085B000890
:1002240080B487B000AF786039600023FB8200237C
:100234003B6119E03B697A6813441B78FB73FB8AC2
:100244001B0A9BB2DAB2FB7B5340BB73FB8A1B02D3
:100254001AB2BB7B094931F813301BB253401BB2AD
:10026400FB823B6901333B613A693B689A42E1DBBB
:10027400FB8A18461C37BD4680BC7047000000202E
:1002840080B483B000AF78600B46FB707B689B78CA
:100294001A460D4B9B5CFA789A420ED17B689B7888
:1002A4000133DAB27B689A707B689B78042B02D1A5
:1002B4007B6800229A70012300E0002318460C3763
:1002C400BD4680BC704700BF0002002080B483B0EC
:1002D40000AF78607B6800221A707B6801225A7034
:1002E4007B6800229A707B68002283F808217B686F
:1002F400002283F8042100BF0C37BD4680BC704740
:1003040080B582B000AF78607868FFF7DFFF00BF88
:100314000837BD4680BD80B584B000AF78607B6887
:1003240093F807311B021AB27B6893F806311BB2AB
:1003340013431BB2FB817B685A1D7B681B791946EA
:100344001046FFF76DFF03461A46FB8993420CBF24
:1003540001230023DBB218461037BD4680BD0000E0
:1003640080B582B000AF78600B46FB707B685B7829
:10037400002B02D17868FFF7C3FF7B68FA78DA7044
:100384007B681B78042B00F2918001A252F823F0C1
:10039400A9030008F5030008050400082B0400085D
:1003A40069040008FB7819467868FFF769FF03467B
:1003B4001A467B685A707B689B781A46414B9B5C53
:1003C400E12B02D17B6801221A707B689B781A4664
:1003D4003C4B9B5CAB2B6BD17B681B79002B03D014
:1003E4007B6804221A7063E07B6805221A705FE060
:1003F4007B68FA7883F805217B6802221A705CE036
:100404007B68FA781A717B68002283F804217B6880
:100414001B79002B03D07B6803221A704DE07B68A4
:1004240000221A7049E07B681B79002B07D07B6897
:1004340093F804311A467B681344FA785A717B683E
:1004440093F804310133DAB27B6883F804217B68C2
:1004540093F804217B681B799A422BD17B68002294
:100464001A7027E07B6893F808311A467B681344B6
:10047400FA7883F806217B6893F808310133DAB2FD
:100484007B6883F808217B6893F80831022B13D129
:100494007868FFF740FF0346002B03D07B680522F2
:1004A4001A7009E07868FFF72BFF05E000BF04E04D
:1004B40000BF02E000BF00E000BF00BF0837BD4638
:1004C40080BD00BF0002002080B5C6B000AF07F5B4
:1004D4008C73A3F58C731A6007F58C73A3F2111354
:1004E40002461A7007F58C73A3F589730A461A70CD
:1004F40007F58C73A3F211131B7803F07F0387F8BD
:10050400173107F58C73A3F211131B78DB0987F8F5
:10051400163197F81631002B27D197F81731002B95
:1005240002D0012B14D055E007F58C73A3F58C731E
:100534001B681A782A4B1A7007F58C73A3F58C7311
:100544001B681B781A462749274801F0F5FF41E04C
:1005540007F58C73A3F58C731B681B781A464FF44C
:100564000051224802F096FC34E0002387F815314C
:10057400002387F8143197F814315A1C87F8142192
:100584001A4607F58C73A3F58673AB21995497F833
:1005940014315A1C87F814211A4607F58C73A3F5F5
:1005A4008673CD21995497F814315A1C87F8142175
:1005B400194607F58C73A3F5867397F817215A54D7
:1005C40097F81731002B02D0012B02D002E000BFB4
:1005D40000E000BF00BF07F58C77BD4680BD00BFBB
:1005E40059060020205B0008B8040020000C0140DC
:1005F40080B5CAB000AF07F59473A3F594731A607D
:1006040007F59473A3F2211302461A7007F5947345
:10061400A3F591730A461A70002387F82731002343
:1006240087F8263197F826315A1C87F826211A466E
:1006340007F59473A3F58873AB21995497F8263181
:100644005A1C87F826211A4607F59473A3F5887374
:10065400CD21995497F826315A1C87F8262119463A
:1006640007F59473A3F5887307F59472A2F2211227
:1006740012785A5407F59473A3F221131B78002BB4
:1006840075D1152387F8273197F826315A1C87F836
:1006940026211A4607F59473A3F588730D219954FE
:1006A400002387F8253114E097F8253107F5947273
:1006B400A2F5947212681A4497F82531117807F557
:1006C4009472A2F59072D15497F82531013387F8CA
:1006D400253197F825310C2BE6D9002387F82431EE
:1006E40016E097F8242197F82631591C87F826112B
:1006F400194607F59473A3F590739A5C07F5947300
:10070400A3F588735A5497F82431013387F82431B8
:1007140097F824310C2BE4D997F826315A1C87F822
:1007240026211A4607F59473A3F58873E121995499
:1007340097F826315A1C87F826211A4607F5947330
:10074400A3F58873E221995497F8263107F118022A
:100754001344C7F8203107F108030D211846FFF7A9
:100764005FFD03461A46D7F820311A8000E000BF27
:1007740097F82731002B09D097F827319AB207F15F
:1007840018014FF4FA63044804F00BF800BF07F5AE
:100794009477BD4680BD00BFE402002080B584B0DC
:1007A40000AF78607B681B685B68FB730D4B1B684C
:1007B4000D49FA7BCA540B4B1B680133094A136079
:1007C400084B1B68B3F5806F02DB064B00221A60EE
:1007D40001220649064804F076F800BF1037BD46EA
:1007E40080BD00BF800D0020800900206C03002024
:1007F400E402002080B582B000AF0F4B1B78052BBC
:1008040009D001F027FE0346FB71FB7919460A481B
:10081400FFF7A6FD0BE0084B93F80531064A117962
:10082400064A1846FFF750FE0348FFF74FFD00BF86
:100834000837BD4680BD00BF70030020750300204B
:1008440090B58DB004AF01F0BBFE9848FFF73EFDB4
:100854009749984800F0D7FA9749984801F026FE3E
:1008640000F050F900F016FA00F0C0F900F0E8F9D1
:1008740000F08EF9AE218F4800F0E2FA0346002B17
:1008840000D1FEE73C23BB7704237B7702233B772D
:100894006423FB7640F29B137B614FF480533B61EE
:1008A400FB7E3C7F787FB97F3A6902927A69019234
:1008B4000093234602467F4800F071FE01228049DE
:1008C400804804F000F8804B1A68804B1B689A42F9
:1008D40003D1764B1B78052B02D1FFF78BFFE3E0A6
:1008E4007B4B1B78002BEED00023FB7752E0714842
:1008F40000F022FC6F4800F053FD0346002BF6D0B5
:100904006C4800F0B8FA0246FB7F91B2714A22F8B3
:100914001310684800F0C8FA0246FB7F91B26E4A91
:1009240022F81310634800F056FDFB7F694A32F841
:1009340013301A46FB7F6949604801F0FDFDFB7FD7
:10094400654A32F813301A4665495C4801F0F4FDF3
:10095400FA7F3B465F4931F812201A80FA7F3B4602
:1009640002335D4931F812201A805E4B1A683B4607
:1009740004331A605C4B1A683B4608331A60FB7FE9
:100984003B733B461A460D210020FFF731FEFB7FE7
:100994000133FB77FA7F6423013B9A42AADB02E02E
:1009A400444800F0C9FB434800F0FAFC0346002B1E
:1009B400F6D0404800F05FFA02466423013B91B24E
:1009C400444A22F813103B4800F06EFA02466423AE
:1009D400013B91B2404A22F81310364800F0FBFC68
:1009E4006421424B0293404B0193414B00933D4B96
:1009F400384A394800F01AFF6423013B354A32F87B
:100A040013301A466423013B34492C4801F094FD09
:100A14006423013B304A32F813301A4630492748E0
:100A240001F08AFD304B1B681A463249234801F015
:100A340083FD2E4B93F900301A462F491F4801F0CD
:100A44007BFD284B1B681A462C491C4801F074FD99
:100A5400274B93F900301A462949184801F06CFDD8
:100A640064235A1E3B461B4931F812201A80642322
:100A74005A1E3B460233184931F812201A80194B8A
:100A84001A683B4604331A60174B1A683B4608330E
:100A94001A606423DBB2013BDBB23B733B461A466C
:100AA4000D210020FFF7A4FD0DE700BF7003002017
:100AB400900200207C04002028030020B8040020B9
:100AC4006C030020E4020020840D0020800D00202F
:100AD4005906002084050020BC040020345B000873
:100AE400485B00084C0600205406002058060020ED
:100AF40050060020545B0008605B0008705B00082F
:100B04007C5B000880B590B000AF07F11803282281
:100B14000021184604F05AFB3B1D00221A605A605B
:100B24009A60DA601A610123BB614FF48033FB6180
:100B340000233B620123BB6202237B634FF48033B7
:100B4400BB634FF4E013FB6307F11803184603F08B
:100B5400C1F90346002B01D000F00AF90F237B6092
:100B64000223BB600023FB604FF480633B610023DE
:100B74007B613B1D0221184603F02EFC0346002B2B
:100B840001D000F0F5F800BF4037BD4680BD00003D
:100B940080B500AF124B134A1A60114B124A5A60C7
:100BA4000F4B00229A600E4B0022DA600C4B4FF47C
:100BB40080421A610A4B00225A61094B00229A6151
:100BC400074B0022DA61064B00221A62044802F045
:100BD4009BF90346002B01D000F0CAF800BF80BD8A
:100BE4009002002000580040801A060080B500AF33
:100BF400114B124A1A60104B4FF4E1325A600E4BFB
:100C040000229A600C4B0022DA600B4B00221A611E
:100C1400094B0C225A61084B00229A61064B0022B0
:100C2400DA61054803F070FD0346002B01D000F0A3
:100C34009FF800BF80BD00BFE4020020004C0040CC
:100C440080B500AF114B124A1A60104B4FF4E132D9
:100C54005A600E4B00229A600C4B0022DA600B4B58
:100C640000221A61094B0C225A61084B00229A6136
:100C7400064B0022DA61054803F046FD0346002BCB
:100C840001D000F075F800BF80BD00BF280300202C
:100C94000038014080B588B000AF07F1100300228E
:100CA4001A605A609A60DA602E4B9B692D4A43F0B1
:100CB400100393612B4B9B6903F01003FB60FB68EB
:100CC400284B9B69274A43F020039361254B9B697A
:100CD40003F02003BB60BB68224B9B69214A43F0AD
:100CE400080393611F4B9B6903F008037B607B68D7
:100CF4001C4B9B691B4A43F004039361194B9B698A
:100D040003F004033B603B6800224FF40051164893
:100D140002F0C0F84FF480533B61144B7B61002315
:100D2400BB6107F1100319460F4801F01FFF4FF490
:100D340000533B6101237B610023BB610223FB6100
:100D440007F110031946084801F010FF00220021A2
:100D5400282001F092FD282001F0ABFD00BF2037D0
:100D6400BD4680BD00100240000C0140000011107F
:100D740080B400AF72B600BFFEE780B586B002AFA4
:100D8400F8607A601A460B46FB721346BB7204E0A5
:100D9400FB681B68184602F066FDFB681868FB7A5E
:100DA40099B2BB7A9BB2642200927A6802F0F0F99D
:100DB4000346002BECD100BF00BF1037BD4680BDF9
:100DC40080B586B002AFF8607A601A460B46FB72B3
:100DD4001346BB7204E0FB681B68184602F043FD2F
:100DE400FB681868FB7A99B2BB7A9BB264220092C2
:100DF4007A6802F0CBFA0346002BECD100BF00BFA7
:100E04001037BD4680BD80B483B000AF78603960D0
:100E14007B683A681A6000BF0C37BD4680BC7047D7
:100E240080B582B000AF78607B681B79FF221946D9
:100E3400786800F02CFB034618460837BD4680BD91
:100E440080B582B000AF78600B46FB707B68FA789F
:100E54001A717868FFF7E4FF03461A4615239A428D
:100E640001D0002303E0786800F055FB0123184605
:100E74000837BD4680BD80B582B000AF7860FA21E6
:100E8400786800F02AF80346002B08D07B6893F8B2
:100E940038301A467B68023253F8223000E00023CF
:100EA40018460837BD4680BD80B582B000AF786073
:100EB400FA21786800F011F80346002B08D07B680B
:100EC40093F838301A467B68063253F8223000E033
:100ED400002318460837BD4680BD80B584B000AFF6
:100EE40078600B46FB7001F0C3FBF86001F0C0FBB7
:100EF4000246FB68D21AFB789A4201D900230BE020
:100F0400786800F019F90346012B01D1012303E0AD
:100F1400012001F0B7FBE9E718461037BD4680BD54
:100F240080B584B000AF78600921BF22402378687F
:100F340000F004FB0023FB7314E07B681B79092297
:100F44001946786800F0A3FA0346BB734022BB7BC2
:100F54001340DBB2002B09D0012001F093FBFB7B93
:100F64000133FB73FB7B632BE7D900E000BF00BFB9
:100F74001037BD4680BD80B582B000AF78600B46A7
:100F8400FB700921F822FB78786800F0D7FA00BFDB
:100F94000837BD4680BD80B582B000AF78600B468F
:100FA400FB700A219F22FB78786800F0C7FA00BF23
:100FB4000837BD4680BD80B582B000AF78600B466F
:100FC400FB700A21E322FB78786800F0B7FA00BFCF
:100FD4000837BD4680BD80B582B000AF78600B464F
:100FE400FB700A21FC22FB78786800F0A7FA00BFA6
:100FF4000837BD4680BD80B582B000AF78600B462F
:10100400FB707B6819790C22FB78786800F067FA2A
:1010140000BF0837BD4680BD80B582B000AF7860A0
:101024000B46FB707B6819790D22FB78786800F019
:1010340056FA00BF0837BD4680BD80B582B000AF08
:1010440078600B46FB707B6819790E22FB78786810
:1010540000F045FA00BF0837BD4680BD80B582B0B8
:1010640000AF78600B46FB707B6819791022FB781F
:10107400786800F034FA00BF0837BD4680BD000030
:1010840080B582B000AF78600B46FB701346BB702E
:10109400FB78013B032B2BD801A252F823F000BFAD
:1010A400B5100008C3100008D5100008E3100008AC
:1010B4001121F822BB78786800F040FA19E0112178
:1010C4008F22BB781B01DBB2786800F037FA10E09E
:1010D4001221F822BB78786800F030FA09E0122176
:1010E4008F22BB781B01DBB2786800F027FA00E09E
:1010F40000BF00BF0837BD4680BD00BF80B582B0C9
:1011040000AF78600B46FB7008211F22FB787868DB
:1011140000F014FA00BF0837BD4680BD80B582B028
:1011240000AF78600821EF221023786800F006FAF7
:1011340000BF0837BD4680BD80B590B000AF786071
:10114400786800F077F9034687F83230786800F061
:1011540061F9034687F831300023FB6397F83220A6
:1011640097F831309A4200F0158197F8312097F8BA
:101174003230D31AFB63FB6B002B02DAFB6B203398
:10118400FB637B685B791A46FB6B03FB02F2134635
:101194005B001344BB63072387F830307B681979FD
:1011A40007F1300201237868FFF7E7FDEEE0BB6B3F
:1011B4007B637B6B202B0EDD7B685B791A461346C1
:1011C4005B001344202292FBF3F101FB03F3D31AD7
:1011D400C3F120037B63BA6B7B6BD31ABB6300231D
:1011E400BB6007F10C0300221A605A609A60DA604F
:1011F4001A615A619A617B6819797B6BDBB207F1DA
:1012040008027868FFF7DCFDBCE07B6893F83830AF
:101214000133DAB27B6883F838207B6893F838307E
:1012240003F00303DAB27B6883F83820002387F8DD
:101234003330002387F82F3097F833305A1C87F85F
:10124400332040333B4413F8383C87F82E3097F86A
:1012540033305A1C87F8332040333B4413F8383C6E
:1012640087F82D3097F833305A1C87F833204033F1
:101274003B4413F8383C87F82C30FB6ABB62BB6AEA
:10128400C3F31103BB627B6893F838301A46B96A1A
:101294007B68023243F822107B685B79012B32D9D8
:1012A400002387F82F3097F833305A1C87F83320FF
:1012B40040333B4413F8383C87F82E3097F83330EA
:1012C4005A1C87F8332040333B4413F8383C87F8E2
:1012D4002D3097F833305A1C87F8332040333B4481
:1012E40013F8383C87F82C30FB6ABB62BB6AC3F343
:1012F4001103BB627B6893F838301A46B96A7B687D
:10130400063243F822107B685B79022B32D9002322
:1013140087F82F3097F833305A1C87F8332040333E
:101324003B4413F8383C87F82E3097F833305A1C76
:1013340087F8332040333B4413F8383C87F82D308A
:1013440097F833305A1C87F8332040333B4413F862
:10135400383C87F82C30FB6ABB62BB6AC3F31103C9
:10136400BB627B6893F838301A46B96A7B680A32E4
:1013740043F822107B685B791A469B00D31A7A6B78
:1013840013447B637B6B002B3FF73FAFBB6B002B9E
:101394003FF70DAFFB6B9BB218464037BD4680BD8F
:1013A40080B485B000AF78607B6893F838207B68A0
:1013B40093F83930D31ADBB2FB7397F90F30002B53
:1013C40003DAFB7B0433DBB2FB73FB7B1846143775
:1013D400BD4680BC704780B582B000AF7860786845
:1013E400FFF7DEFF0346002B10D07B6893F83930FB
:1013F4000133DAB27B6883F839207B6893F839309B
:1014040003F00303DAB27B6883F8392000BF08379E
:10141400BD4680BD80B582B000AF78607B681B7923
:1014240004221946786800F032F803461846083753
:10143400BD4680BD80B582B000AF78607B681B7903
:1014440006221946786800F022F803461846083741
:10145400BD4680BD80B582B000AF78607B681979E5
:1014640004220023786800F03AF87B681979052291
:101474000023786800F033F87B681979062200238A
:10148400786800F02CF800BF0837BD4680BD80B5F1
:1014940084B000AF78600B46FB701346BB70FB78DA
:1014A40043F00103D9B2BA1C01237868FFF765FC45
:1014B40000BF7B681B68184602F0C8F90346202B5E
:1014C400F7D10023FB7307F10F02F9780123786841
:1014D400FFF776FCFB7B18461037BD4680BD80B510
:1014E40084B000AF7860084611461A460346FB7084
:1014F4000B46BB7013467B70BB783B737B787B7366
:1015040007F10C02F97802237868FFF736FC00BF74
:101514001037BD4680BD80B582B000AF78607B686F
:101524001B79FE2219467868FFF7B1FF03461A4675
:101534007B689A7100BF0837BD4680BD80B584B012
:1015440000AF7860084611461A460346FB700B4606
:10155400BB7013467B707B681B79FA7819467868F0
:10156400FFF795FF0346FB73FA7BBB781340FB73CD
:101574007B681979FA7B7B781343DBB2FA78786855
:10158400FFF7ADFF7B681B79FA7819467868FFF797
:101594007EFF0346BB7300BF1037BD4680BD80B5D8
:1015A40082B000AF7860084611461A460346FB70C5
:1015B4000B46BB7013467B707868FFF7B1FCBB78B1
:1015C400012B05D1002319467868FFF797FD31E018
:1015D400BB78022B05D1202319467868FFF78EFDCE
:1015E40028E0BB78042B05D1402319467868FFF71F
:1015F40085FD1FE0BB78082B05D160231946786868
:10160400FFF77CFD16E0BB78102B05D1802319462B
:101614007868FFF773FD0DE0BB78202B05D1A0237C
:1016240019467868FFF76AFD04E040231946786894
:10163400FFF764FD7868FFF771FD7B78032B05D114
:10164400072319467868FFF796FC0DE07B78022B98
:1016540005D1032319467868FFF78DFC04E00223C3
:1016640019467868FFF787FC7B687A785A71BB69FA
:10167400B3F5805F05DA002319467868FFF78BFC21
:1016840022E0BB69B3F5005F05DA202319467868C8
:10169400FFF781FC18E0BB69B3F5804F05DA4023FE
:1016A40019467868FFF777FC0EE0BB69B3F5804F05
:1016B40005D1602319467868FFF76DFC04E0002328
:1016C40019467868FFF767FC3B69632B05DC002348
:1016D40019467868FFF76FFC49E03B69C72B05DCC6
:1016E400042319467868FFF766FC40E03B69B3F5CC
:1016F400C87F05DA082319467868FFF75CFC36E0F2
:101704003B69B3F5487F05DA0C2319467868FFF77F
:1017140052FC2CE03B69B3F57A7F05DA10231946B5
:101724007868FFF748FC22E03B69B3F5C86F05DA37
:10173400142319467868FFF73EFC18E03B69B3F5BB
:10174400486F05DA182319467868FFF734FC0EE071
:101754003B69B3F5486F05D11C2319467868FFF738
:101764002AFC04E0002319467868FFF724FC7B690F
:10177400752B05DC002319467868FFF72CFC22E062
:101784007B69D62B05DC012319467868FFF723FC17
:1017940019E07B69B3F5CD7F05DC0223194678682F
:1017A400FFF719FC0FE07B6940F29B12934205D1CD
:1017B400032319467868FFF70EFC04E0002319465A
:1017C4007868FFF708FCFB7819467868FFF713FC84
:1017D400FB7819467868FFF71FFCFB781946786890
:1017E400FFF72BFCFB7819467868FFF737FC0123D9
:1017F4001A4601217868FFF743FC7B78012B05D951
:1018040002231A4602217868FFF73AFC7B78022B00
:1018140005D903231A4603217868FFF731FC786859
:10182400FFF718FE00BF0837BD4680BD80B5B0B0D5
:1018340004AFF860B9607A603B600023C7F88C306D
:101844000023C7F888300023C7F8AC300023C7F85A
:10185400A83010E0D7F8A8305B00FA6813441B885E
:101864001A46D7F8AC301344C7F8AC30D7F8A830D0
:101874000133C7F8A830D7F8A820BB689A42E9DB3F
:10188400BB68D7F8AC20B2FBF3F3C7F8AC30002345
:10189400C7F8A83014E0D7F8A8305B00FA681344FE
:1018A4001B881A46D7F8AC309B1A1946B44AD7F8A5
:1018B400A83042F82310D7F8A8300133C7F8A8306D
:1018C400D7F8A820BB689A42E5DB0023C7F8A83004
:1018D40028E0AB4AD7F8A83052F82320D7F8A8302C
:1018E4000133A74951F823301A44D7F8A8300233FA
:1018F400A34951F823301A44D7F8A8300333A04938
:1019040051F823301344002B00DA03339B1019469B
:101914009B4AD7F8A83042F82310D7F8A8300133EF
:10192400C7F8A830D7F8A8305F2BD2DD0023C7F85A
:101934009C300023C7F8A8300EE0914AD7F8A830AD
:1019440052F82330D7F89C201344C7F89C30D7F8BA
:10195400A8300133C7F8A830D7F8A830632BECDDE2
:10196400D7F89C30874A82FB03125211DB17D31A33
:10197400C7F89C30D7F89C301D2B02DC1E23C7F817
:101984009C30D7F89C303C2B02DD3C23C7F89C30BC
:101994000023C7F8A8300CE0D7F8A8309B00B03378
:1019A4003B44002243F8882CD7F8A8300133C7F809
:1019B400A830D7F8A8300E2BEEDD07F1640107F14B
:1019C40028000F23029304230193D7F89C3000933B
:1019D40064236B4A00F036FA0023C7F898307B6E14
:1019E400012B38DD0123C7F8A83019E0D7F8A83057
:1019F4009B00B0333B4453F8882CD7F8A830013B04
:101A04009B00B0333B4453F8883CD31AD7F8982052
:101A14001344C7F89830D7F8A8300133C7F8A83072
:101A24007B6ED7F8A8209A42E0DB7B6E013BD7F8A7
:101A3400982092FBF3F3C7F8983040F2DC52D7F8C1
:101A4400983092FBF3F2D7F8BC301A60D7F8C03064
:101A540001221A7007E0D7F8BC304B4A1A60D7F855
:101A6400C03000221A700023C7F8A8301CE0D7F851
:101A7400A8305B00FA6813441B881946404AD7F81B
:101A8400A83042F82310D7F8A8305B007A681344D2
:101A94001B8819463D4AD7F8A83042F82310D7F8D6
:101AA400A8300133C7F8A830D7F8A820BB689A42F9
:101AB400DDDB7B6EC7F880300023C7F88430002359
:101AC400C7F8A4300023C7F8A8300CE0D7F8A83032
:101AD4009B00B0333B44002243F89C2CD7F8A83039
:101AE4000133C7F8A830D7F8A830042BEEDD002363
:101AF400C7F8A83015E0D7F8A8309B00B0333B44B2
:101B040053F8883C642B07DD3B681F4A1A60D7F8FA
:101B1400B83000221A7089E1D7F8A8300133C7F829
:101B2400A830D7F8A820D7F880309A42E3DB002306
:101B3400C7F8A83029E14FF07F43C7F894304FF03D
:101B44007F43C7F89030D7F8A83001339B00B033F7
:101B54003B4453F8882CD7F8A8309B00B0333B445F
:101B640053F8883CD31A032B40F30A81D7F8A830E2
:101B74009B00B0333B4453F8883CC7F8A03034E0B2
:101B84005C0600201F85EB5119FCFFFFEC070020C9
:101B9400A84AD7F8A03052F82330D7F890209A42B8
:101BA4000ADAA44AD7F8A03052F82330C7F89030A4
:101BB400D7F8A030C7F888309F4AD7F8A03052F839
:101BC4002330D7F894209A420ADA9B4AD7F8A030F7
:101BD40052F82330C7F89430D7F8A030C7F88C30C7
:101BE400D7F8A0300133C7F8A030D7F8A8300133B4
:101BF4009B00B0333B4453F8883CD7F8A0209A426A
:101C0400C6DBD7F8A83001339B00B0333B4453F80C
:101C1400883C894A52F82320D7F8A8309B00B03377
:101C24003B4453F8883C844951F82330D21AD7F8FE
:101C3400A8309B00B0333B4453F8883CD7F88C1051
:101C4400CB1A02FB03F37B67D7F8A8309B00B033B1
:101C54003B4453F8883C784A52F82320D7F8A830FC
:101C640001339B00B0333B4453F8881CD7F8A830A9
:101C74009B00B0333B4453F8883CCB1A796F91FBFB
:101C8400F3F313447B676C4AD7F88C3052F8232063
:101C94007B6FD31A7B67D7F8A83001339B00B0332E
:101CA4003B4453F8883C634A52F82320D7F8A830C1
:101CB4009B00B0333B4453F8883C5E4951F82330D1
:101CC400D21AD7F8A8309B00B0333B4453F8883C71
:101CD400D7F88810CB1A02FB03F33B67D7F8A83078
:101CE4009B00B0333B4453F8883C524A52F82320BB
:101CF400D7F8A83001339B00B0333B4453F8881C19
:101D0400D7F8A8309B00B0333B4453F8883CCB1A37
:101D1400396F91FBF3F313443B67464AD7F88C3091
:101D240052F823203B6FD31A3B677B6FD7F8902080
:101D340002FB03F3DB11FB663B6FD7F8942002FB35
:101D440003F3DB11BB66BB6E002B19DDD7F8A4309F
:101D5400042B15DCFB6E002B12D0FB6E642203FBFC
:101D640002F2BB6E92FBF3F2D7F8A4309B00B033BF
:101D74003B4443F89C2CD7F8A4300133C7F8A43073
:101D8400D7F8A8300133C7F8A830D7F88030013B22
:101D9400D7F8A8209A42FFF6CEAE07F11403D7F87D
:101DA400A410184600F042F9D7F8A430DA0F13440F
:101DB4005B10FB67FB6F012B13DDFB6F013B9B008B
:101DC400B0333B4453F89C2CFB6F9B00B0333B4433
:101DD40053F89C3C1344DA0F13445B10C7F8843067
:101DE40007E0FB6F9B00B0333B4453F89C3CC7F8BF
:101DF4008430D7F88430022B11DDD7F88430B72B28
:101E04000DDC0E4AD7F8843013441B78BB673B685B
:101E1400BA6F1A60D7F8B83001221A7006E03B682E
:101E2400074A1A60D7F8B83000221A70B037BD4696
:101E340080BD00BF5C060020EC070020A05B00080A
:101E440019FCFFFF80B586B002AFF860B9607A6014
:101E54003B60BB6900933B687A68B968F86800F036
:101E640012F8FB697A68B968F86800F07FF8BB6813
:101E74001A683B6A9A42A8BF1A46BB681A6000BF38
:101E84001037BD4680BD80B487B000AFF860B9603C
:101E94007A603B6001237B61BB6800221A605AE0D0
:101EA4007B699B007A6813441B683A6A9A424FDA4A
:101EB4007B699B007A6813441A687B6903F1804349
:101EC400013B9B0079680B441B689A4240DD012367
:101ED4003B6102E03B6901333B617A693B6913442E
:101EE4003A689A420DDD7B699B007A6813441A684C
:101EF40079693B690B449B0079680B441B689A42DF
:101F0400E8D07B699B007A6813441A6879693B6955
:101F14000B449B0079680B441B689A4213DDBB6831
:101F24001B680E2B0FDCBB681B68591CBA68116058
:101F34009B00FA6813447A691A603B6901337A6931
:101F440013447B6103E07A693B6913447B6102E0DB
:101F54007B6901337B613B68013B7A699A429FDB71
:101F640000BF00BF1C37BD4680BC704780B588B039
:101F740000AFF860B9607A603B60BB681B681A46C2
:101F8400F968786800F094F84FF0FF33FB613EE0A5
:101F9400BB681B687B61FB695A1CBB681A60FB69E0
:101FA4000133BB612CE0BB699B00FA6813441A68D7
:101FB400FB69B3F1FF3F05D0FB699B00F9680B4453
:101FC4001B6801E04FF0FF33D31A3B613A693B6869
:101FD4009A4204DC3B685B423A699A420DDABB6977
:101FE4009B00FA681A44BB681B68581CB9680860EF
:101FF4009B00F9680B4412681A60BB690133BB612A
:10200400BA697B699A42CEDBFB690133FB61BB6829
:102014001B68FA699A42BBDBBB681B681946F868FF
:1020240000F004F800BF2037BD4680BD80B487B0FF
:1020340000AF7860396001237B612FE07B699B00EE
:102044007A6813441B68FB607B693B610FE03B6962
:1020540003F18043013B9B007A681A443B699B006F
:1020640079680B4412681A603B69013B3B613B6928
:10207400002B0ADD3B6903F18043013B9B007A6836
:1020840013441B68FA689A42E1DB3B699B007A6857
:102094001344FA681A607B6901337B617A693B688F
:1020A4009A42CBDB00BF00BF1C37BD4680BC7047E3
:1020B40080B489B000AFF860B9607A600123FB6135
:1020C40037E0FB699B00BA6813441B687B61FB69BA
:1020D400BB610FE0BB6903F18043013B9B00BA681D
:1020E4001A44BB699B00B9680B4412681A60BB6947
:1020F400013BBB61BB69002B12DD7B699B00FA6865
:1021040013441A68BB6903F18043013B9B00B9681F
:102114000B441B689B00F9680B441B689A42D9DC8A
:10212400BB699B00BA6813447A691A60FB6901337E
:10213400FB61FA697B689A42C3DB00BF00BF2437A6
:10214400BD4680BC7047000080B485B000AF154B1D
:102154009B69144A43F001039361124B9B6903F09A
:102164000103BB60BB680F4BDB690E4A43F080532D
:10217400D3610C4BDB6903F080537B607B680A4BB3
:102184005B68FB60FB6823F0E063FB60FB6843F083
:102194000073FB60044AFB68536000BF1437BD46FC
:1021A40080BC7047001002400000014080B588B038
:1021B40000AF786007F1100300221A605A609A6039
:1021C400DA607B681B68164A934224D1154B9B69DD
:1021D400144A43F008039361124B9B6903F008030C
:1021E400FB60FB684FF440633B6112237B61032374
:1021F400FB6107F1100319460B4800F0B7FC094BCB
:10220400DB69084A43F48003D361064BDB6903F4BA
:102214008003BB60BB6800BF2037BD4680BD00BFE4
:102224000058004000100240000C014080B58CB002
:1022340000AF786007F11C0300221A605A609A60AC
:10224400DA607B681B68424A93423AD1414BDB69AE
:10225400404A43F40023D3613E4BDB6903F400237B
:10226400BB61BB693B4B9B693A4A43F010039361E2
:10227400384B9B6903F010037B617B694FF48063E7
:10228400FB6102233B620323BB6207F11C03194673
:10229400314800F06BFC4FF40063FB6100233B62A8
:1022A40000237B6207F11C0319462B4800F05EFCF7
:1022B40000220021342000F0E0FA342000F0F9FA82
:1022C40042E07B681B68254A93423DD1214B9B69C0
:1022D400204A43F4804393611E4B9B6903F480437B
:1022E4003B613B691B4B9B691A4A43F008039361AA
:1022F400184B9B6903F00803FB60FB684023FB61F8
:1023040002233B620323BB6207F11C0319461448F2
:1023140000F02CFC8023FB6100233B6200237B62E2
:1023240007F11C0319460E4800F020FC0D4B5B68B6
:10233400FB62FB6A43F0E063FB62FB6A43F0040365
:10234400FB62084AFB6A536000BF3037BD4680BD5C
:10235400004C0040001002400010014000380140D1
:10236400000C01400000014080B400AFFEE780B4DF
:1023740000AFFEE780B400AFFEE780B400AFFEE735
:1023840080B400AFFEE780B400AF00BFBD4680BCA0
:10239400704780B400AF00BFBD4680BC704780B4B6
:1023A40000AF00BFBD4680BC704780B500AF00F0F1
:1023B4004DF900BF80BD80B500AF4FF4805000F0F0
:1023C40081FD00BF80BD000080B500AF024802F06F
:1023D400ABFA00BF80BD00BFE402002080B586B028
:1023E40000AF7860144A154BD31A7B617B693B615B
:1023F400134B1B68002B02D1114B124A1A60104B6D
:102404001A687B6813443A699A4207D202F0B4FE10
:1024140003460C221A604FF0FF3309E0084B1B6897
:10242400FB60074B1A687B681344054A1360FB681A
:1024340018461837BD4680BD00C0002000040000C7
:102444007C090020A00E002080B400AF00BFBD4670
:1024540080BC704780B582B000AF03E04FF47A705F
:1024640000F010F90E4B1A680E4B1B689A42F5D017
:102474000B4B1B680C4AD35CFB71094B1B68013383
:10248400074A1360064B1B68B3F5806F02DB044BED
:1024940000221A60FB7918460837BD4680BD00BF8C
:1024A400840D0020800D00208009002080B483B0BA
:1024B40000AF786039607B683A681A6000BF0C37F7
:1024C400BD4680BC704780B582B000AF78600B46D3
:1024D400FB707B681868F91C6423012202F061F91F
:1024E40000BF0837BD4680BD80B582B000AF7860BC
:1024F4000B46FB70FB7819467868FFF7E4FF00BFD2
:102504000837BD4680BD80B582B000AF78603960C1
:1025140008E03B681B7819467868FFF7E5FF3B68DD
:1025240001333B603B681B78002BF2D100BF00BF36
:102534000837BD4680BD00000EB480B585B000AF3D
:10254400786007F12003BB60BB68FA694FF48071BF
:10255400074802F06FFEF86005497868FFF7D3FF7B
:10256400FB6818461437BD46BDE8804003B0704789
:10257400880D00200C480D490D4A002302E0D45870
:10258400C4500433C4188C42F9D30A4A0A4C0023B9
:1025940001E013600432A242FBD3FFF755FF02F0BF
:1025A400F1FDFEF74DF97047000000207402002091
:1025B400AC5C0008740200209C0E0020FEE70000C2
:1025C40080B500AF084B1B68074A43F01003136043
:1025D400032000F047F90F2000F008F8FFF7B4FDDE
:1025E4000023184680BD00BF0020024080B582B0A1
:1025F40000AF7860124B1A68124B1B7819464FF4DF
:102604007A73B3FBF1F3B2FBF3F3184600F05FF90E
:102614000346002B01D001230EE07B680F2B0AD860
:10262400002279684FF0FF3000F027F9064A7B68F2
:102634001360002300E0012318460837BD4680BD1F
:10264400040200200C0200200802002080B400AF25
:10265400054B1B781A46054B1B681344034A136049
:1026640000BFBD4680BC70470C020020880E0020CD
:1026740080B400AF024B1B681846BD4680BC70474F
:10268400880E002080B584B000AF7860FFF7F0FFBB
:10269400B8607B68FB60FB68B3F1FF3F05D00A4B71
:1026A4001B781A46FB681344FB6000BFFFF7E0FF8A
:1026B4000246BB68D31AFA689A42F7D800BF00BF33
:1026C4001037BD4680BD00BF0C02002080B485B029
:1026D40000AF78607B6803F00703FB600C4BDB689A
:1026E400BB60BA684FF6FF031340BB60FB681A0275
:1026F400BB68134343F0BF6343F40033BB60044A35
:10270400BB68D36000BF1437BD4680BC704700BFB0
:1027140000ED00E080B400AF044BDB681B0A03F05B
:1027240007031846BD4680BC704700BF00ED00E0BB
:1027340080B483B000AF0346FB7197F90730002BD8
:102744000BDBFB7903F01F02064997F907305B099D
:10275400012000FA02F241F8232000BF0C37BD46E5
:1027640080BC704700E100E080B483B000AF034652
:102774003960FB7197F90730002B0ADB3B68DAB24A
:102784000C4997F907301201D2B20B4483F80023A5
:102794000AE03B68DAB20849FB7903F00F03043B13
:1027A4001201D2B20B441A7600BF0C37BD4680BC6E
:1027B400704700BF00E100E000ED00E080B489B0A4
:1027C40000AFF860B9607A60FB6803F00703FB614F
:1027D400FB69C3F10703042B28BF0423BB61FB6916
:1027E4000433062B02D9FB69033B00E000237B6121
:1027F4004FF0FF32BB6902FA03F3DA43BB681A40B5
:102804007B699A404FF0FF317B6901FA03F3D943A6
:102814007B680B40134318462437BD4680BC704781
:1028240080B582B000AF78607B68013BB3F1807FF4
:1028340001D301230FE00A4A7B68013B53600F2157
:102844004FF0FF30FFF790FF054B00229A60044BD6
:1028540007221A60002318460837BD4680BD00BF12
:1028640010E000E080B582B000AF78607868FFF7D0
:102874002DFF00BF0837BD4680BD80B586B000AFD0
:102884000346B9607A60FB7300237B61FFF742FF64
:1028940078617A68B9687869FFF790FF024697F91A
:1028A4000F3011461846FFF75FFF00BF1837BD46CB
:1028B40080BD80B582B000AF0346FB7197F9073045
:1028C4001846FFF735FF00BF0837BD4680BD80B509
:1028D40082B000AF78607868FFF7A2FF034618461D
:1028E4000837BD4680BD80B485B000AF7860002352
:1028F400FB737B6893F82130022B08D07B68042299
:102904009A637B68002283F82020012320E07B68FF
:102914001B681A687B681B6822F00E021A607B68C9
:102924001B681A687B681B6822F001021A607B68C6
:102934001A6C7B68DB6B012101FA02F25A607B6836
:10294400012283F821207B68002283F82020FB7B6E
:1029540018461437BD4680BC7047000080B584B06B
:1029640000AF78600023FB737B6893F82130022B5F
:1029740005D07B6804229A630123FB73D6E07B684D
:102984001B681A687B681B6822F00E021A607B6859
:102994001B681A687B681B6822F001021A607B6856
:1029A4001B681A46644B9A4258D97B681B68634A71
:1029B40093424FD07B681B68614A934248D07B683E
:1029C4001B68604A934240D07B681B685E4A93420E
:1029D40038D07B681B685D4A934230D07B681B68A3
:1029E4005B4A934228D07B681B68534A934220D0A9
:1029F4007B681B68574A934219D07B681B68564A08
:102A0400934212D07B681B68544A93420AD07B6875
:102A14001B68534A934202D14FF480531BE04FF496
:102A2400803318E04FF4807315E0102313E0012382
:102A340011E04FF080730EE04FF480130BE04FF47D
:102A4400803308E04FF4805305E04FF4807302E0D4
:102A5400102300E00123434A536057E07B681B685E
:102A6400364A93424FD07B681B68354A934248D01C
:102A74007B681B68334A934240D07B681B68324AA8
:102A8400934238D07B681B68304A934230D07B68CD
:102A94001B682F4A934228D07B681B68264A9342BE
:102AA40020D07B681B682B4A934219D07B681B6833
:102AB400294A934212D07B681B68284A93420AD061
:102AC4007B681B68264A934202D14FF480531BE073
:102AD4004FF4803318E04FF4807315E0102313E0B3
:102AE400012311E04FF080730EE04FF480130BE0EC
:102AF4004FF4803308E04FF4805305E04FF48073C3
:102B040002E0102300E00123174A53607B6801228E
:102B140083F821207B68002283F820207B685B6B8C
:102B2400002B03D07B685B6B78689847FB7B184667
:102B34001037BD4680BD00BF80000240080002403F
:102B44001C00024030000240440002405800024091
:102B54006C000240080402401C040240300402409D
:102B640044040240000402400000024080B48BB0E0
:102B740000AF7860396000237B6200233B6279E117
:102B840001227B6A02FA03F3FB613B681B68FA6962
:102B94001340BB61BA69FB699A4240F068813B68A3
:102BA4005B68964A93425ED0944A934275D8944A9D
:102BB400934258D0924A93426FD8924A934252D049
:102BC400904A934269D8904A93424CD08E4A934299
:102BD40063D88E4A934246D08C4A93425DD8122BD6
:102BE4002AD8122B59D801A252F823F06B2C0008D2
:102BF400452C0008572C0008992C00089F2C00082D
:102C04009F2C00089F2C00089F2C00089F2C000874
:102C14009F2C00089F2C00089F2C00089F2C000864
:102C24009F2C00089F2C00089F2C00089F2C000854
:102C34004D2C0008612C0008754A934213D02CE0F7
:102C44003B68DB683B6229E03B68DB6804333B623A
:102C540024E03B68DB6808333B621FE03B68DB68C9
:102C64000C333B621AE03B689B68002B02D10423BF
:102C74003B6213E03B689B68012B05D108233B6250
:102C84007B68FA691A6109E008233B627B68FA6988
:102C94005A6103E000233B6200E000BFBB69FF2BE5
:102CA40001D87B6801E07B6804337B61BB69FF2B3F
:102CB40002D87B6A9B0002E07B6A083B9B003B6175
:102CC4007B691A680F213B6901FA03F3DB431A405D
:102CD400396A3B6901FA03F31A437B691A603B685A
:102CE4005B6803F08053002B00F0C180494B9B6963
:102CF400484A43F001039361464B9B6903F0010387
:102D0400BB60BB68444A7B6A9B08023352F8233099
:102D1400FB607B6A03F003039B000F2202FA03F3B8
:102D2400DB43FA681340FB607B683C4A93421FD044
:102D34007B683B4A934219D07B683A4A934213D04A
:102D44007B68394A93420DD07B68384A934207D056
:102D54007B68374A934201D105230AE0062308E041
:102D6400042306E0032304E0022302E0012300E03D
:102D740000237A6A02F0030292009340FA68134334
:102D8400FB6025497B6A9B080233FA6841F82320DB
:102D94003B685B6803F48033002B06D0254B1A682C
:102DA4002449BB6913430B6006E0224B1A68BB69D4
:102DB400DB43204913400B603B685B6803F400333A
:102DC400002B06D01B4B5A681A49BB6913434B604E
:102DD40006E0184B5A68BB69DB43164913404B6045
:102DE4003B685B6803F48013002B25D0114B9A6871
:102DF4001049BB6913438B6025E000BF000032100B
:102E040000003110000022100000211000001210F8
:102E140000001110001002400000014000080140B1
:102E2400000C014000100140001401400018014052
:102E3400001C014000040140154B9A68BB69DB4348
:102E4400134913408B603B685B6803F40013002B49
:102E540006D00F4BDA680E49BB691343CB6006E01A
:102E64000B4BDA68BB69DB4309491340CB607B6ACF
:102E740001337B623B681A687B6A22FA03F3002BF6
:102E84007FF47EAE00BF00BF2C37BD4680BC7047C8
:102E94000004014080B483B000AF78600B467B80AF
:102EA40013467B707B78002B03D07A887B681A6189
:102EB40003E07B881A047B681A6100BF0C37BD46A7
:102EC40080BC704780B582B000AF0346FB80084BDE
:102ED4005A69FB881340002B06D0054AFB885361CE
:102EE400FB88184600F006F800BF0837BD4680BDD1
:102EF4000004014080B483B000AF0346FB8000BFF0
:102F04000C37BD4680BC704780B584B000AF786094
:102F14007B68002B01D101232BE17B6893F83D30C2
:102F2400DBB2002B06D17B68002283F83C20786852
:102F3400FFF73CF97B68242283F83D207B681B68FB
:102F44001A687B681B6822F001021A607B681B68A0
:102F54001A687B681B6842F400421A607B681B682D
:102F64001A687B681B6822F400421A6001F086FB31
:102F7400F8607B685B68814A934207D8FB68804AA3
:102F8400934294BF01230023DBB206E0FB687D4A31
:102F9400934294BF01230023DBB2002B01D0012311
:102FA400E7E0FB68784AA2FB03239B0CBB607B68C9
:102FB4001B685B6823F03F017B681B68BA680A439F
:102FC4005A607B681B681B6A23F03F017B685B685F
:102FD4006A4A934202D8BB68013309E0BB684FF4E4
:102FE400967202FB03F3694AA2FB03239B09013394
:102FF4007A6812680B4313627B681B68DB6923F4ED
:103004004F4222F0FF027B685B685C498B4219D80F
:10301400FB68591E7B685B685B00B1FBF3F3591CCA
:1030240040F6FC730B40002B0AD0FB68591E7B68EA
:103034005B685B00B1FBF3F30133C3F30B0351E0B3
:1030440004234FE07B689B68002B11D1FB68581E5A
:103054007B6859680B465B000B44B0FBF3F3013308
:10306400C3F30B03002B0CBF01230023DBB212E0DC
:10307400FB68581E7B6859680B469B000B449900FB
:103084000B44B0FBF3F30133C3F30B03002B0CBF6E
:1030940001230023DBB2002B01D0012322E07B6853
:1030A4009B68002B0ED1FB68581E7B6859680B4641
:1030B4005B000B44B0FBF3F30133C3F30B0343F4A2
:1030C40000430FE0FB68581E7B6859680B469B0061
:1030D4000B4499000B44B0FBF3F30133C3F30B032C
:1030E40043F44043796809681343CB617B681B68E8
:1030F4001B6823F0C0017B68DA697B681B6A1A438A
:103104007B681B680A431A607B681B689B6823F40E
:10311400034323F0FF037A6811697A68D268114384
:103124007A6812680B4393607B681B68DB6823F042
:10313400FF017B685A697B689B691A437B681B683B
:103144000A43DA607B681B681A687B681B6842F074
:1031540001021A607B6800221A647B68202283F8CB
:103164003D207B6800221A637B68002283F83E209E
:10317400002318461037BD4680BD00BFA08601005D
:103184007F841E00FF083D0083DE1B43D34D621085
:1031940080B588B002AFF8607A601A460B467B812E
:1031A40013463B81FFF764FA7861FB6893F83D307E
:1031B400DBB2202B40F0E0807B69009319230122CD
:1031C4007049F86800F0AAFC0346002B01D00223E2
:1031D400D3E0FB6893F83C30012B01D10223CCE00F
:1031E400FB68012283F83C20FB681B681B6803F022
:1031F4000103012B07D0FB681B681A68FB681B6876
:1032040042F001021A60FB681B681A68FB681B68BD
:1032140022F400621A60FB68212283F83D20FB68D7
:10322400102283F83E20FB6800221A64FB687A6847
:103234005A62FB683A895A85FB685B8D9AB2FB68CF
:103244001A85FB68504ADA6279897B693A6AF868B8
:1032540000F014FB0346002B01D001238DE0002372
:103264003B61FB681B685B693B61FB681B689B698E
:103274003B613B6966E07A69396AF86800F024FDCD
:103284000346002B0DD0FB681B6C042B07D1FB6895
:103294001B681A68FB681B6842F400721A600123F9
:1032A4006BE0FB685B6A1A78FB681B681A61FB6851
:1032B4005B6A5A1CFB685A62FB685B8D9BB2013BDC
:1032C4009AB2FB685A85FB681B8D013B9AB2FB6876
:1032D4001A85FB681B685B6903F00403042B1BD18C
:1032E400FB681B8D002B17D0FB685B6A1A78FB68A0
:1032F4001B681A61FB685B6A5A1CFB685A62FB68AC
:103304005B8D9BB2013B9AB2FB685A85FB681B8DAF
:10331400013B9AB2FB681A857A69396AF86800F049
:1033240014FD0346002B0DD0FB681B6C042B07D146
:10333400FB681B681A68FB681B6842F400721A6019
:1033440001231AE0FB681B8D002B94D1FB681B68DA
:103354001A68FB681B6842F400721A60FB6820223A
:1033640083F83D20FB68002283F83E20FB6800229E
:1033740083F83C20002300E0022318461837BD469A
:1033840080BD00BF020010000000FFFF80B58CB0BC
:1033940002AFF8607A601A460B467B8113463B8184
:1033A40000233B62FFF764F97862FB6893F83D30D1
:1033B400DBB2202B40F03F827B6A00931923012269
:1033C4007F49F86800F0AAFB0346002B01D00223D2
:1033D40032E2FB6893F83C30012B01D102232BE24B
:1033E400FB68012283F83C20FB681B681B6803F020
:1033F4000103012B07D0FB681B681A68FB681B6874
:1034040042F001021A60FB681B681A68FB681B68BB
:1034140022F400621A60FB68222283F83D20FB68D4
:10342400102283F83E20FB6800221A64FB687A6845
:103434005A62FB683A895A85FB685B8D9AB2FB68CD
:103444001A85FB685F4ADA6279897B6A3A6BF868A5
:1034540000F096FA0346002B01D00123ECE1FB684F
:103464001B8D002B13D10023FB61FB681B685B6978
:10347400FB61FB681B689B69FB61FB69FB681B685C
:103484001A68FB681B6842F400721A60C0E1FB68AA
:103494001B8D012B1ED1FB681B681A68FB681B6817
:1034A40022F480621A6072B600BF0023BB61FB681D
:1034B4001B685B69BB61FB681B689B69BB61BB697B
:1034C400FB681B681A68FB681B6842F400721A6088
:1034D40062B635E0FB681B8D022B1ED1FB681B68AE
:1034E4001A68FB681B6842F400621A6072B600BF77
:1034F40000237B61FB681B685B697B61FB681B685D
:103504009B697B617B69FB681B681A68FB681B68A5
:1035140022F480621A6062B612E0FB681B681A68C3
:10352400FB681B6842F480621A6000233B61FB68FD
:103534001B685B693B61FB681B689B693B613B697A
:1035440066E1FB681B8D032B00F21F81FB681B8D5A
:10355400012B23D17A6A396BF86800F037FC0346F3
:10356400002B01D0012367E1FB681B681A69FB6823
:103574005B6AD2B21A70FB685B6A5A1CFB685A62B7
:10358400FB681B8D013B9AB2FB681A85FB685B8D57
:103594009BB2013B9AB2FB685A8539E1FB681B8DEB
:1035A400022B52D17B6A00933B6B00220649F868D8
:1035B40000F0B4FA0346002B08D001233CE100BF1D
:1035C400020010000000FFFF0400010072B600BFFB
:1035D400FB681B681A68FB681B6842F400721A6077
:1035E400FB681B681A69FB685B6AD2B21A70FB68D5
:1035F4005B6A5A1CFB685A62FB681B8D013B9AB2DA
:10360400FB681A85FB685B8D9BB2013B9AB2FB6831
:103614005A8562B600BFFB681B681A69FB685B6A5F
:10362400D2B21A70FB685B6A5A1CFB685A62FB6868
:103634001B8D013B9AB2FB681A85FB685B8D9BB2BC
:10364400013B9AB2FB685A85E2E07B6A00933B6BCC
:1036540000227B49F86800F061FA0346002B01D090
:103664000123E9E0FB681B681A68FB681B6822F405
:1036740080621A6072B600BFFB681B681A69FB6837
:103684005B6AD2B21A70FB685B6A5A1CFB685A62A6
:10369400FB681B8D013B9AB2FB681A85FB685B8D46
:1036A4009BB2013B9AB2FB685A85664B1B68DB08E8
:1036B400654AA2FB03231A0A13469B001344DA004B
:1036C400D31A3B623B6A013B3B623B6A002B18D135
:1036D400FB6800221A63FB68202283F83D20FB6804
:1036E400002283F83E20FB681B6C43F02002FB6839
:1036F4001A6462B600BFFB68002283F83C200123F1
:103704009AE0FB681B685B6903F00403042BD9D1BE
:10371400FB681B681A68FB681B6842F400721A6035
:10372400FB681B681A69FB685B6AD2B21A70FB6893
:103734005B6A5A1CFB685A62FB681B8D013B9AB298
:10374400FB681A85FB685B8D9BB2013B9AB2FB68F0
:103754005A8562B600BFFB681B681A69FB685B6A1E
:10376400D2B21A70FB685B6A5A1CFB685A62FB6827
:103774001B8D013B9AB2FB681A85FB685B8D9BB27B
:10378400013B9AB2FB685A8542E07A6A396BF86861
:1037940000F01CFB0346002B01D001234CE0FB6826
:1037A4001B681A69FB685B6AD2B21A70FB685B6AB1
:1037B4005A1CFB685A62FB681B8D013B9AB2FB687A
:1037C4001A85FB685B8D9BB2013B9AB2FB685A85F4
:1037D400FB681B685B6903F00403042B18D1FB68C6
:1037E4001B681A69FB685B6AD2B21A70FB685B6A71
:1037F4005A1CFB685A62FB681B8D013B9AB2FB683A
:103804001A85FB685B8D9BB2013B9AB2FB685A85B3
:10381400FB681B8D002B7FF494AEFB68202283F899
:103824003D20FB68002283F83E20FB68002283F8D9
:103834003C20002300E0022318462837BD4680BD03
:10384400040001000402002089B5F81480B483B098
:1038540000AF78607B6893F83D30DBB218460C37D4
:10386400BD4680BC704780B483B000AF78607B688D
:103874001B6C18460C37BD4680BC704780B588B0B9
:1038840002AFF8607A603B600B467B81FB68DB6AC1
:103894007B617B69082B06D07B69012B03D07B6994
:1038A40013F5803F08D1FB681B681A68FB681B6826
:1038B40042F480721A600BE0FB681B6B122B07D179
:1038C400FB681B681A68FB681B6842F480721A6004
:1038D4003B6800937B6800224FF00111F86800F008
:1038E4001DF90346002B0DD0FB681B681B6803F40D
:1038F4008073B3F5807F03D1FB684FF400721A64C0
:10390400032335E0FB681B69B3F5804F08D17B893D
:10391400DBB21A46FB681B6802F0FE021A611BE068
:103924007B89DB11DBB203F00603DBB263F00F0328
:10393400DAB2FB681B681A613B687A680E49F8685A
:1039440000F043F90346002B01D0012310E07B89EA
:10395400DAB2FB681B681A613B687A680749F86841
:1039640000F033F90346002B01D0012300E00023CB
:1039740018461837BD4680BD08000100020001004A
:1039840080B588B002AFF8607A603B600B467B81FB
:10399400FB68DB6A7B61FB681B681A68FB681B6851
:1039A40042F480621A607B69082B06D07B69012B84
:1039B40003D07B6913F5803F08D1FB681B681A6844
:1039C400FB681B6842F480721A600BE0FB681B6B97
:1039D400112B07D1FB681B681A68FB681B6842F44B
:1039E40080721A603B6800937B6800224FF00111DB
:1039F400F86800F093F80346002B0DD0FB681B68B1
:103A04001B6803F48073B3F5807F03D1FB684FF424
:103A140000721A64032379E0FB681B69B3F5804FD5
:103A240008D17B89DBB243F00103DAB2FB681B687F
:103A34001A615FE07B89DB11DBB203F00603DBB2C2
:103A440063F00F03DAB2FB681B681A613B687A689B
:103A54003049F86800F0B9F80346002B01D001237F
:103A640054E07B89DAB2FB681B681A613B687A68A8
:103A74002949F86800F0A9F80346002B01D0012376
:103A840044E000233B61FB681B685B693B61FB68A6
:103A94001B689B693B613B69FB681B681A68FB6890
:103AA4001B6842F480721A603B6800937B680022B2
:103AB4004FF00111F86800F031F80346002B0DD0E7
:103AC400FB681B681B6803F48073B3F5807F03D124
:103AD400FB684FF400721A64032317E07B89DB113F
:103AE400DBB203F00603DBB263F00E03DAB2FB6869
:103AF4001B681A613B687A680749F86800F065F842
:103B04000346002B01D0012300E000231846183798
:103B1400BD4680BD080001000200010080B584B0EC
:103B240000AFF860B9603B601346FB7125E03B6869
:103B3400B3F1FF3F21D0FEF79BFD0246BB69D31AC8
:103B44003A689A4202D33B68002B16D1FB680022E4
:103B54001A63FB68202283F83D20FB68002283F867
:103B64003E20FB681B6C43F02002FB681A64FB6870
:103B7400002283F83C20012323E0BB681B0CDBB24A
:103B8400012B0DD1FB681B685B69DA43BB681340EA
:103B94009BB2002B0CBF01230023DBB21A460CE0BE
:103BA400FB681B689B69DA43BB6813409BB2002B1C
:103BB4000CBF01230023DBB21A46FB799A42B6D02C
:103BC400002318461037BD4680BD80B584B000AFD1
:103BD400F860B9607A603B6051E0FB681B685B6920
:103BE40003F48063B3F5806F23D1FB681B681A6804
:103BF400FB681B6842F400721A60FB681B686FF470
:103C040080625A61FB6800221A63FB68202283F8F1
:103C14003D20FB68002283F83E20FB681B6C43F0C8
:103C24000402FB681A64FB68002283F83C20012329
:103C340046E07B68B3F1FF3F21D0FEF719FD024651
:103C44003B68D31A7A689A4202D37B68002B16D158
:103C5400FB6800221A63FB68202283F83D20FB687E
:103C6400002283F83E20FB681B6C43F02002FB68B3
:103C74001A64FB68002283F83C20012320E0BB681F
:103C84001B0CDBB2012B0CD1FB681B685B69DA43AC
:103C9400BB6813409BB2002B14BF01230023DBB28B
:103CA4000BE0FB681B689B69DA43BB6813409BB25B
:103CB400002B14BF01230023DBB2002B8DD1002382
:103CC40018461037BD4680BD80B584B000AFF8609B
:103CD400B9607A602DE0F86800F0CEF80346002B56
:103CE40001D001232DE0BB68B3F1FF3F21D0FEF7E3
:103CF400BFFC02467B68D31ABA689A4202D3BB68F7
:103D0400002B16D1FB6800221A63FB68202283F87B
:103D14003D20FB68002283F83E20FB681B6C43F0C7
:103D24002002FB681A64FB68002283F83C2001230C
:103D340007E0FB681B685B6903F08003802BCAD132
:103D4400002318461037BD4680BD80B584B000AF4F
:103D5400F860B9607A602DE0F86800F08DF80346E9
:103D6400002B01D001232DE0BB68B3F1FF3F21D02C
:103D7400FEF77EFC02467B68D31ABA689A4202D3E5
:103D8400BB68002B16D1FB6800221A63FB68202253
:103D940083F83D20FB68002283F83E20FB681B6CFF
:103DA40043F02002FB681A64FB68002283F83C207D
:103DB400012307E0FB681B685B6903F00403042B21
:103DC400CAD1002318461037BD4680BD80B584B0E3
:103DD40000AFF860B9607A6042E0FB681B685B6919
:103DE40003F01003102B19D1FB681B686FF010024D
:103DF4005A61FB6800221A63FB68202283F83D2085
:103E0400FB68002283F83E20FB681A6CFB681A6486
:103E1400FB68002283F83C20012329E0FEF728FCFC
:103E240002467B68D31ABA689A4202D3BB68002B55
:103E340016D1FB6800221A63FB68202283F83D2018
:103E4400FB68002283F83E20FB681B6C43F02002D1
:103E5400FB681A64FB68002283F83C20012307E016
:103E6400FB681B685B6903F04003402BB5D100235A
:103E740018461037BD4680BD80B483B000AF78606B
:103E84007B681B685B6903F48063B3F5806F1BD1A7
:103E94007B681B686FF480625A617B6800221A6336
:103EA4007B68202283F83D207B68002283F83E2033
:103EB4007B681B6C43F004027B681A647B680022F5
:103EC40083F83C20012300E0002318460C37BD464C
:103ED40080BC704780B586B000AF78607B68002BEB
:103EE40001D1012372E27B681B6803F00103002BFC
:103EF40000F08780924B5B6803F00C03042B0CD01A
:103F04008F4B5B6803F00C03082B12D18C4B5B685E
:103F140003F48033B3F5803F0BD1894B1B6803F462
:103F24000033002B6CD07B685B68002B68D10123C5
:103F34004CE27B685B68B3F5803F06D1804B1B681D
:103F44007F4A43F4803313602EE07B685B68002B68
:103F54000CD17B4B1B687A4A23F480331360784B73
:103F64001B68774A23F4802313601DE07B685B6839
:103F7400B3F5A02F0CD1724B1B68714A43F4802314
:103F840013606F4B1B686E4A43F4803313600BE07D
:103F94006B4B1B686A4A23F480331360684B1B68BD
:103FA400674A23F4802313607B685B68002B13D07B
:103FB400FEF75EFB386108E0FEF75AFB02463B69F8
:103FC400D31A642B01D9032300E25D4B1B6803F46D
:103FD4000033002BF0D014E0FEF74AFB386108E010
:103FE400FEF746FB02463B69D31A642B01D903232F
:103FF400ECE1534B1B6803F40033002BF0D100E0D9
:1040040000BF7B681B6803F00203002B63D04C4B9A
:104014005B6803F00C03002B0BD0494B5B6803F087
:104024000C03082B1CD1464B5B6803F48033002B34
:1040340016D1434B1B6803F00203002B05D07B68A9
:104044001B69012B01D00123C0E13D4B1B6823F008
:10405400F8027B685B69DB00394913430B603AE083
:104064007B681B69002B20D0364B01221A60FEF7B7
:10407400FFFA386108E0FEF7FBFA02463B69D31AFF
:10408400022B01D90323A1E12D4B1B6803F002038A
:10409400002BF0D02A4B1B6823F0F8027B685B6985
:1040A400DB00274913430B6015E0264B00221A60FE
:1040B400FEF7DEFA386108E0FEF7DAFA02463B69F9
:1040C400D31A022B01D9032380E11D4B1B6803F093
:1040D4000203002BF0D17B681B6803F00803002B5C
:1040E4003AD07B689B69002B19D0174B01221A60C8
:1040F400FEF7BEFA386108E0FEF7BAFA02463B69F9
:10410400D31A022B01D9032360E10D4B5B6A03F040
:104114000203002BF0D0012000F0D8FA1CE00A4B77
:1041240000221A60FEF7A4FA38610FE0FEF7A0FA45
:1041340002463B69D31A022B08D9032346E100BF88
:10414400001002400000424280044242924B5B6AEB
:1041540003F00203002BE9D17B681B6803F004031E
:10416400002B00F0A6800023FB758B4BDB6903F06A
:104174008053002B0DD1884BDB69874A43F0805371
:10418400D361854BDB6903F08053BB60BB680123BB
:10419400FB75824B1B6803F48073002B18D17F4B93
:1041A4001B687E4A43F480731360FEF761FA38613A
:1041B40008E0FEF75DFA02463B69D31A642B01D985
:1041C400032303E1754B1B6803F48073002BF0D0C9
:1041D4007B68DB68012B06D16F4B1B6A6E4A43F088
:1041E400010313622DE07B68DB68002B0CD16A4B62
:1041F4001B6A694A23F001031362674B1B6A664A10
:1042040023F0040313621CE07B68DB68052B0CD1EC
:10421400614B1B6A604A43F0040313625E4B1B6AE2
:104224005D4A43F0010313620BE05B4B1B6A5A4A7D
:1042340023F001031362584B1B6A574A23F004030B
:1042440013627B68DB68002B15D0FEF711FA386126
:104254000AE0FEF70DFA02463B69D31A41F28832AE
:10426400934201D90323B1E04B4B1B6A03F00203D1
:10427400002BEED014E0FEF7FBF938610AE0FEF7FC
:10428400F7F902463B69D31A41F28832934201D9C5
:1042940003239BE0404B1B6A03F00203002BEED187
:1042A400FB7D012B05D13C4BDB693B4A23F080535A
:1042B400D3617B68DB69002B00F08780364B5B6839
:1042C40003F00C03082B61D07B68DB69022B46D119
:1042D400334B00221A60FEF7CBF9386108E0FEF791
:1042E400C7F902463B69D31A022B01D903236DE0B7
:1042F400294B1B6803F00073002BF0D17B681B6A09
:10430400B3F5803F08D1244B5B6823F400327B680B
:104314009B68214913434B601F4B5B6823F4741261
:104324007B68196A7B685B6A0B431B4913434B60C8
:104334001B4B01221A60FEF79BF9386108E0FEF777
:1043440097F902463B69D31A022B01D903233DE0B6
:10435400114B1B6803F00073002BF0D035E0104BB9
:1043640000221A60FEF784F9386108E0FEF780F94C
:1043740002463B69D31A022B01D9032326E0064BDC
:104384001B6803F00073002BF0D11EE07B68DB692F
:10439400012B07D1012319E00010024000700040F6
:1043A400600042420B4B5B68FB60FB6803F48032A5
:1043B4007B681B6A9A4206D1FB6803F470127B681F
:1043C4005B6A9A4201D0012300E0002318461837A3
:1043D400BD4680BD0010024080B584B000AF786057
:1043E40039607B68002B01D10123D0E06A4B1B6844
:1043F40003F007033A689A4210D9674B1B6823F00D
:10440400070265493B6813430B60634B1B6803F069
:1044140007033A689A4201D00123B8E07B681B681D
:1044240003F00203002B20D07B681B6803F0040315
:10443400002B05D0594B5B68584A43F4E063536042
:104444007B681B6803F00803002B05D0534B5B68A3
:10445400524A43F460535360504B5B6823F0F002BC
:104464007B689B684D4913434B607B681B6803F072
:104474000103002B40D07B685B68012B07D1474BBD
:104484001B6803F40033002B15D101237FE07B6804
:104494005B68022B07D1414B1B6803F00073002BB0
:1044A40009D1012373E03D4B1B6803F00203002B89
:1044B40001D101236BE0394B5B6823F003027B6875
:1044C4005B68364913434B60FEF7D2F8F8600AE0A4
:1044D400FEF7CEF80246FB68D31A41F288329342C3
:1044E40001D9032353E02D4B5B6803F00C027B6876
:1044F4005B689B009A42EBD1274B1B6803F00703D0
:104504003A689A4210D2244B1B6823F007022249CE
:104514003B6813430B60204B1B6803F007033A68A6
:104524009A4201D0012332E07B681B6803F0040344
:10453400002B08D0194B5B6823F4E0627B68DB68CE
:10454400164913434B607B681B6803F00803002B78
:1045540009D0124B5B6823F460527B681B69DB0053
:104564000E4913434B6000F021F802460B4B5B6885
:104574001B0903F00F030A49CB5C22FA03F3094A2F
:104584001360094B1B681846FEF730F800231846E1
:104594001037BD4680BD00BF00200240001002401D
:1045A400585C0008040200200802002090B48AB07D
:1045B40000AF294B3C1D0FCB84E80F0040F20123D0
:1045C4003B800023FB610023BB6100237B6200234B
:1045D4007B6100233B62214B5B68FB61FB6903F059
:1045E4000C03042B02D0082B03D02BE01C4B3B62A2
:1045F4002BE0FB699B0C03F00F0328333B4413F8B7
:10460400243C7B61FB6903F48033002B12D0134BF1
:104614005B685B0C03F0010328333B4413F8283C2C
:10462400BB617B690E4A03FB02F2BB69B2FBF3F385
:104634007B6204E07B690B4A02FB03F37B627B6AC7
:104644003B6202E0064B3B6200BF3B6A18462837D8
:10465400BD4690BC704700BF905B0008001002404C
:1046640000127A0000093D0080B400AF024B1B68C1
:104674001846BD4680BC70470402002080B500AFD8
:10468400FFF7F2FF0246054B5B681B0A03F00703C2
:104694000349CB5C22FA03F3184680BD00100240A4
:1046A400685C000880B500AFFFF7DEFF0246054BEB
:1046B4005B68DB0A03F007030349CB5C22FA03F3CC
:1046C400184680BD00100240685C000880B485B0C4
:1046D40000AF78600A4B1B680A4AA2FB03235B0AFB
:1046E4007A6802FB03F3FB6000BFFB685A1EFA60A2
:1046F400002BF9D100BF00BF1437BD4680BC704702
:1047040004020020D34D621080B582B000AF7860FF
:104714007B68002B01D101233FE07B6893F83D3097
:10472400DBB2002B06D17B68002283F83C2078683A
:10473400FDF77CFD7B68242283F83D207B681B68A1
:10474400DA687B681B6822F40052DA60786800F04B
:1047540085FC7B681B681A697B681B6822F490429D
:104764001A617B681B685A697B681B6822F02A02FD
:104774005A617B681B68DA687B681B6842F40052E4
:10478400DA607B6800221A647B68202283F83D206B
:104794007B68202283F83E20002318460837BD4654
:1047A40080BD80B58AB002AFF860B9603B60134643
:1047B400FB8000237B61FB6893F83D30DBB2202B48
:1047C4007CD1BB68002B02D0FB88002B01D10123D4
:1047D40075E0FB6893F83C30012B01D102236EE0B5
:1047E400FB68012283F83C20FB6800221A64FB6802
:1047F400212283F83D20FDF73BFF7861FB68FA88AE
:104804009A84FB68FA88DA84FB689B68B3F5805F56
:1048140008D1FB681B69002B04D10023FB61BB6832
:10482400BB6103E0BB68FB610023BB61FB68002242
:1048340083F83C202AE03B6800937B6900228021B6
:10484400F86800F038FA0346002B01D0032336E061
:10485400FB69002B0BD1BB691B881A46FB681B68DC
:10486400C2F308025A60BB690233BB6107E0FB690B
:104874001A78FB681B685A60FB690133FB61FB68AB
:10488400DB8C9BB2013B9AB2FB68DA84FB68DB8C5D
:104894009BB2002BCFD13B6800937B69002240215F
:1048A400F86800F008FA0346002B01D0032306E061
:1048B400FB68202283F83D20002300E002231846F1
:1048C4002037BD4680BD80B584B000AFF860B960C4
:1048D4001346FB80FB6893F83E30DBB2202B1DD1DE
:1048E400BB68002B02D0FB88002B01D1012316E00A
:1048F400FB6893F83C30012B01D102230FE0FB68E5
:10490400012283F83C20FB6800221A63FB881A46C4
:10491400B968F86800F019FA034600E00223184663
:104924001037BD4680BD000080B58AB000AF786006
:104934007B681B681B687B627B681B68DB683B6267
:104944007B681B685B69FB610023BB6100237B619F
:104954007B6A03F00F03BB61BB69002B0DD17B6A3B
:1049640003F02003002B08D03B6A03F02003002B44
:1049740003D0786800F0C9FA7BE1BB69002B00F032
:10498400B180FB6903F00103002B05D13B6A03F4FA
:104994009073002B00F0A6807B6A03F00103002BC8
:1049A4000AD03B6A03F48073002B05D07B681B6C30
:1049B40043F001027B681A647B6A03F00403002B52
:1049C4000AD0FB6903F00103002B05D07B681B6C44
:1049D40043F002027B681A647B6A03F00203002B33
:1049E4000AD0FB6903F00103002B05D07B681B6C24
:1049F40043F004027B681A647B6A03F00803002B0B
:104A04000FD03B6A03F02003002B04D1FB6903F0B1
:104A14000103002B05D07B681B6C43F008027B6804
:104A24001A647B681B6C002B00F01E817B6A03F008
:104A34002003002B07D03B6A03F02003002B02D095
:104A4400786800F062FA7B681B685B6903F04003D6
:104A5400002B14BF01230023DBB27B617B681B6C3A
:104A640003F00803002B02D17B69002B31D0786856
:104A740000F0A4F97B681B685B6903F04003002B1A
:104A840023D07B681B685A697B681B6822F040024C
:104A94005A617B689B6B002B13D07B689B6B764AB7
:104AA4005A637B689B6B1846FDF758FF0346002B3F
:104AB40016D07B689B6B5B6B7A68926B1046984749
:104AC4000EE0786800F0E3F80AE0786800F0DFF8B8
:104AD40006E0786800F0DBF87B6800221A64C3E023
:104AE40000BFC1E07B681B6B012B40F0A1807B6A97
:104AF40003F01003002B00F09B803B6A03F01003CB
:104B0400002B00F095800023FB607B681B681B680A
:104B1400FB607B681B685B68FB60FB687B681B68E9
:104B24005B6903F04003002B4ED07B689B6B1B68D2
:104B34005B683B823B8A002B00F098807B689B8DEE
:104B44003A8A9A4280F092807B683A8ADA857B6856
:104B54009B6B9B69202B2BD07B681B68DA687B6876
:104B64001B6822F48072DA607B681B685A697B6870
:104B74001B6822F001025A617B681B685A697B68D2
:104B84001B6822F040025A617B68202283F83E2091
:104B94007B6800221A637B681B68DA687B681B6881
:104BA40022F01002DA607B689B6B1846FDF79BFECF
:104BB4007B689A8D7B68DB8D9BB2D31A9BB21946B6
:104BC400786800F06DF851E07B689A8D7B68DB8D26
:104BD4009BB2D31A7B827B68DB8D9BB2002B47D0C0
:104BE4007B8A002B44D07B681B68DA687B681B686F
:104BF40022F49072DA607B681B685A697B681B68D0
:104C040022F001025A617B68202283F83E207B68EF
:104C140000221A637B681B68DA687B681B6822F0D1
:104C24001002DA607B8A1946786800F039F81FE0D0
:104C34007B6A03F08003002B08D03B6A03F08003F7
:104C4400002B03D0786800F0F9F812E07B6A03F0D7
:104C54004003002B0DD03B6A03F04003002B08D027
:104C6400786800F03AF904E000BF02E000BF00E019
:104C740000BF2837BD4680BD194E000880B483B0FC
:104C840000AF786000BF0C37BD4680BC704780B46D
:104C940083B000AF786000BF0C37BD4680BC70475E
:104CA40080B483B000AF78600B467B8000BF0C37C4
:104CB400BD4680BC704780B584B000AFF860B96071
:104CC4003B601346FB712CE0BB69B3F1FF3F28D076
:104CD400BB69002B07D0FDF7CBFC02463B68D31A17
:104CE400BA699A421DD2FB681B68DA68FB681B68C4
:104CF40022F4D072DA60FB681B685A69FB681B688F
:104D040022F001025A61FB68202283F83D20FB68EF
:104D1400202283F83E20FB68002283F83C200323F2
:104D24000FE0FB681B681A68BB681340BA689A42B4
:104D34000CBF01230023DBB21A46FB799A42C3D08D
:104D4400002318461037BD4680BD80B485B000AF3F
:104D5400F860B9601346FB80FB68BA689A62FB6826
:104D6400FA889A85FB68FA88DA85FB6800221A6457
:104D7400FB68222283F83E20FB68002283F83C2053
:104D8400FB681B68DA68FB681B6842F48072DA60AF
:104D9400FB681B685A69FB681B6842F001025A6190
:104DA400FB681B68DA68FB681B6842F02002DA6063
:104DB400002318461437BD4680BC704780B483B0C6
:104DC40000AF78607B681B68DA687B681B6822F434
:104DD4009072DA607B681B685A697B681B6822F0F2
:104DE40001025A617B681B6B012B07D17B681B682E
:104DF400DA687B681B6822F01002DA607B68202284
:104E040083F83E207B6800221A6300BF0C37BD463E
:104E140080BC704780B584B000AF78607B685B6A03
:104E2400FB60FB680022DA85FB680022DA84F868FC
:104E3400FFF72DFF00BF1037BD4680BD80B485B09D
:104E440000AF78607B6893F83D30DBB2212B3ED114
:104E54007B689B68B3F5805F14D17B681B69002B6A
:104E640010D17B681B6AFB60FB681B881A467B6851
:104E74001B68C2F308025A607B681B6A9A1C7B6831
:104E84001A6208E07B681B6A591C7A6811621A78F6
:104E94007B681B685A607B68DB8C9BB2013B9BB2CE
:104EA4007A681946D184002B0FD17B681B68DA68B5
:104EB4007B681B6822F08002DA607B681B68DA6812
:104EC4007B681B6842F04002DA60002300E00223A2
:104ED40018461437BD4680BC704780B582B000AF19
:104EE40078607B681B68DA687B681B6822F0400284
:104EF400DA607B68202283F83D207868FFF7BEFEE5
:104F0400002318460837BD4680BD80B586B000AF83
:104F140078607B6893F83E30DBB2222B40F09980B6
:104F24007B689B68B3F5805F17D17B681B69002B96
:104F340013D100237B617B689B6A3B617B681B68A0
:104F44005B689BB2C3F308039AB23B691A807B681F
:104F54009B6A9A1C7B689A6226E07B689B6A7B61E9
:104F640000233B617B689B68B3F5805F07D07B6857
:104F74009B68002B0AD17B681B69002B06D17B68D8
:104F84001B685B68DAB27B691A7008E07B681B688F
:104F94005B68DBB203F07F03DAB27B691A707B686B
:104FA4009B6A5A1C7B689A627B68DB8D9BB2013BCF
:104FB4009BB27A681946D185002B48D17B681B685F
:104FC400DA687B681B6822F02002DA607B681B6861
:104FD400DA687B681B6822F48072DA607B681B687D
:104FE4005A697B681B6822F001025A617B6820229F
:104FF40083F83E207B681B6B012B23D17B68002246
:105004001A637B681B68DA687B681B6822F01002ED
:10501400DA607B681B681B6803F01003102B0AD14D
:105024000023FB607B681B681B68FB607B681B6854
:105034005B68FB60FB687B689B8D19467868FFF7AB
:105044002FFE02E07868FBF7A9FB002302E00023AF
:1050540000E0022318461837BD4680BD80B584B0F1
:1050640000AF78607B681B681B6923F440517B6840
:10507400DA687B681B680A431A617B689A687B68F4
:105084001B691A437B685B691343BB607B681B68BD
:10509400DB6823F4B05323F00C037A681268B96810
:1050A4000B43D3607B681B685B6923F440717B68A6
:1050B4009A697B681B680A435A617B681B682C4A9F
:1050C400934203D1FFF7EEFAF86002E0FFF7D6FA55
:1050D400F860FA6813469B0013449A001A447B68EC
:1050E4005B689B00B2FBF3F3224AA2FB03235B0938
:1050F4001901FA6813469B0013449A001A447B680A
:105104005B689B00B2FBF3F21A4BA3FB02035B093F
:10511400642000FB03F3D31A1B013233154AA2FBAC
:1051240003235B0903F0F0031944FA6813469B0058
:1051340013449A001A447B685B689B00B2FBF3F249
:105144000C4BA3FB02035B09642000FB03F3D31A9B
:105154001B013233074AA2FB03235B0903F00F024E
:105164007B681B680A449A6000BF1037BD4680BD47
:10517400003801401F85EB51014B1868704700BF90
:105184001002002070B500260C4D0D4C641BA410B9
:10519400A64209D100F0B6FC00260A4D0A4C641B55
:1051A400A410A64205D170BD55F8043B98470136BA
:1051B400EEE755F8043B98470136F2E7A45C000893
:1051C400A45C0008A45C0008A85C00080346024430
:1051D400934200D1704703F8011BF9E730B5144638
:1051E400002C05461A469BB005DA8B2303604FF06A
:1051F400FF301BB030BD4FF40273ADF80C300CBF60
:10520400234604F1FF33029305934FF6FF73009195
:105214000491ADF80E3069461E9B00F075F8431CEE
:10522400BCBF8B232B60002CE3D00022009B1A70A0
:10523400DFE7000007B5009313460A46014603481A
:105244000068FFF7CBFF03B05DF804FB10020020F9
:105254002DE9F0478E6882469E420C4690461F46D2
:1052640038D88A8912F4906F32D0256809690133DD
:10527400A5EB010965694B4405EB450505EBD575BF
:105284006D109D4238BF1D46530531D5294600F0A7
:105294006FFB064650B90C234FF0FF30CAF80030BC
:1052A400A38943F04003A381BDE8F0874A462169FE
:1052B40000F0CEFAA38923F4906343F08003A38122
:1052C40026614E4426603E466561A5EB0905A5604E
:1052D400BE4200D93E4632464146206800F0C6FA36
:1052E400A36800209B1BA360236833442360DBE78F
:1052F4002A4600F0B1FB06460028E1D15046216958
:1053040000F0CEFAC7E700002DE9F04F98468B89EC
:1053140007461B060D4614469DB00ED50B6963B9AE
:10532400402100F025FB2860286120B90C233B6054
:105334004FF0FF30D1E040236B6100230993202319
:105344008DF8293030234FF00109CDF80C80DFF8B7
:10535400A4818DF82A3023469A4613F8012B0AB10A
:10536400252AF9D1BAEB040B0BD05B462246294619
:105374003846FFF76DFF013000F0AA80099A5A44BD
:1053840009929AF80030002B00F0A28000234FF01D
:10539400FF32CDE905230AF1010A049307938DF83E
:1053A40053301A935446052214F8011B514800F057
:1053B40041FA049AD8B9D00644BF20238DF853305B
:1053C400110744BF2B238DF853309AF800302A2B51
:1053D40015D0544600204FF00A0C079A214611F8C4
:1053E400013B303B092B4ED9B0B1079214E0A0EB3E
:1053F400080309FA03F31343A2460493D2E7039B79
:10540400191D1B680391002BBBBF5B4242F00202D3
:1054140007930793B8BF049223782E2B0CD163789B
:105424002A2B35D1039B02341A1D1B680392002BCF
:10543400B8BF4FF0FF330593DFF8BCA003225046FA
:10544400217800F0F7F940B14023A0EB0A0003FAF9
:1054540000F0049B01340343049314F8011B062257
:1054640026488DF8281000F0E5F9002838D0244BA0
:105474001BBB039B073323F0070308330393099BE8
:105484003344099367E70C4601200CFB0232A5E77D
:1054940000234FF00A0C194601340593204610F8F6
:1054A400012B303A092A03D9002BC5D00591C3E753
:1054B400044601230CFB0121F0E703AB00932A46C9
:1054C4003846104B04A9AFF30080421C0646D6D1DF
:1054D400AB895B063FF52CAF09981DB0BDE8F08F92
:1054E40003AB00932A463846064B04A900F07CF827
:1054F400EBE700BF705C0008765C00087A5C00088B
:1055040000000000555200082DE9F0471646994660
:105514008A680B6907469342B8BF1346336091F813
:1055240043200C46DDF820800AB101333360236840
:10553400990642BF336802333360256815F00605C7
:1055440006D104F1190AE36832689B1AAB4228DCDD
:1055540094F84320131E226818BF012392062DD409
:105564004946384604F14302C047013020D023683D
:10557400E56803F00603042B18BF002532684FF0DA
:105584000006A36808BFAD1A226908BF25EAE575BD
:105594009342C4BF9B1AED181A34B5421AD10020A5
:1055A40008E00123524649463846C047013003D13A
:1055B4004FF0FF30BDE8F0870135C4E73020E11833
:1055C40081F843005A1C94F845102244023382F8AF
:1055D4004310C5E70123224649463846C0470130F7
:1055E400E6D00136D9E700002DE9FF470F7E91464A
:1055F400782F80460C469A460C9D01F1430207D849
:10560400622F0AD8002F00F0D980582F00F0A48010
:1056140004F1420584F842703AE0A7F16303152BC4
:10562400F6D801A151F823F08556000899560008D0
:10563400155600081556000815560008155600089A
:105644009956000815560008155600081556000806
:1056540015560008A7570008C956000889570008BE
:105664001556000815560008C957000815560008B5
:10567400C956000815560008155600089157000829
:105684002B681A1D1B682A6004F1420584F8423015
:105694000123A4E020682968060601F104030AD561
:1056A4000E682B60002E03DA2D23764284F84330F3
:1056B4000A235E4819E00E6810F0400F2B6018BFF3
:1056C40036B2EFE72B682068191D2960010601D561
:1056D4001E6802E04606FBD51E886F2F0CBF082308
:1056E4000A235248002184F843106568002DA8BF9E
:1056F4002168A560A4BF21F0040121600EB9002D2A
:105704004DD01546B6FBF3F103FB1167C75D05F8F1
:10571400017D3746BB420E46F4D9082B0BD12368D2
:10572400DE0708D5236961689942DEBF302305F896
:10573400013C05F1FF35521B22614B462146404690
:10574400CDF800A003AAFFF7DFFE01304CD14FF0E3
:10575400FF3004B0BDE8F087344881F8457029680B
:10576400236851F8046B29601D0614D5DF0744BF74
:1057740043F0200323601EB9236823F02003236031
:105784001023AFE7236843F02003236078232848DD
:1057940084F84530E3E7590648BFB6B2E6E7154654
:1057A400BBE72B682668181D6169286035061B68ED
:1057B40001D5196002E07006FBD519800023154657
:1057C4002361BAE72B6800211A1D2A601D686268EC
:1057D400284600F02FF808B1401B6060636823611D
:1057E400002384F84330A8E72A4649464046236903
:1057F400D0470130ABD023689B0713D4E068039BE8
:105804009842B8BF1846A4E70123324649464046A9
:10581400D04701309BD00135E36803995B1AAB4252
:10582400F2DCEBE7002504F11906F5E7815C0008DA
:10583400925C0008034610B5C9B20244934218466C
:1058440001D1002003E0047801338C42F6D110BD6D
:105854000A44914200F1FF3300D1704710B511F8AA
:10586400014B914203F8014FF9D110BD884210B5A4
:1058740001EB020402D98442234607D8431EA14205
:1058840008D011F8012B03F8012FF8E70146024470
:105894008A4200D110BD13F8014D02F8014DF7E71B
:1058A40038B50546002940D051F8043C0C1F002BA4
:1058B400B8BFE41800F010F91C4A136833B96360E8
:1058C40014602846BDE8384000F00CB9A34208D95A
:1058D400206821188B4201BF19685B680918216090
:1058E400EDE71A465B680BB1A342FAD91168501868
:1058F400A0420BD120680144501883421160E0D1CA
:1059040018685B68014411605360DAE702D90C231C
:105914002B60D6E7206821188B4201BF19685B68A9
:105924000918216063605460CBE738BD8C0E0020F9
:1059340070B50E4E0C463168054611B900F0BCF83E
:1059440030602146284600F0B7F8431C0AD0C41C36
:1059540024F00304A04207D0211A284600F0ACF832
:10596400013001D14FF0FF34204670BD900E00206D
:105974002DE9F041CD1C25F0030508350C2D38BF69
:105984000C25002D074601DBA94205D90C2300266E
:105994003B603046BDE8F0812E4E00F09DF8336840
:1059A4001C4634BB29463846FFF7C2FF431C044655
:1059B4004DD134682646002E40D1236831463846FE
:1059C40004EB030800F078F880453AD121680335E8
:1059D4006D1A25F0030508350C2D38BF0C25384603
:1059E4002946FFF7A5FF01302BD023682B44236001
:1059F4000EE02268521B1ED40B2A16D96119A34249
:105A0400256018BF5960636808BF316062514B60FC
:105A1400384604F10B0600F065F826F00706231D4E
:105A2400F21AB6D09B1BA350B3E76268A3420CBF23
:105A340032605A60ECE723466468B2E7344676681D
:105A4400B9E70C2338463B6000F04CF8A1E7256029
:105A5400DEE700BF8C0E00202DE9F041804614469D
:105A64000E4621B91146BDE8F041FFF781BF2AB9BE
:105A7400FFF716FF25462846BDE8F08100F038F808
:105A84008442074602D8B4EB500F12D82146404650
:105A9400FFF76EFF05460028EDD0BC422246314692
:105AA40028BF3A46FFF7D4FE31464046FFF7F8FEDA
:105AB400E1E73546DFE7000038B50023054D04462D
:105AC40008462B60FCF78AFC431C02D12B6803B107
